{
  "contractName": "FactoryContract",
  "abi": [
    {
      "inputs": [
        {
          "internalType": "address",
          "name": "_loyaltyTokenAddress",
          "type": "address"
        },
        {
          "internalType": "address",
          "name": "_userContractAddress",
          "type": "address"
        },
        {
          "internalType": "address",
          "name": "_vendorContractAddress",
          "type": "address"
        }
      ],
      "stateMutability": "nonpayable",
      "type": "constructor"
    },
    {
      "anonymous": false,
      "inputs": [
        {
          "indexed": true,
          "internalType": "address",
          "name": "previousOwner",
          "type": "address"
        },
        {
          "indexed": true,
          "internalType": "address",
          "name": "newOwner",
          "type": "address"
        }
      ],
      "name": "OwnershipTransferred",
      "type": "event"
    },
    {
      "inputs": [
        {
          "internalType": "address",
          "name": "",
          "type": "address"
        }
      ],
      "name": "deployedUserContracts",
      "outputs": [
        {
          "internalType": "address",
          "name": "",
          "type": "address"
        }
      ],
      "stateMutability": "view",
      "type": "function",
      "constant": true
    },
    {
      "inputs": [
        {
          "internalType": "address",
          "name": "",
          "type": "address"
        }
      ],
      "name": "deployedVendorContracts",
      "outputs": [
        {
          "internalType": "address",
          "name": "",
          "type": "address"
        }
      ],
      "stateMutability": "view",
      "type": "function",
      "constant": true
    },
    {
      "inputs": [],
      "name": "loyaltyToken",
      "outputs": [
        {
          "internalType": "contract LoyaltyToken",
          "name": "",
          "type": "address"
        }
      ],
      "stateMutability": "view",
      "type": "function",
      "constant": true
    },
    {
      "inputs": [],
      "name": "owner",
      "outputs": [
        {
          "internalType": "address",
          "name": "",
          "type": "address"
        }
      ],
      "stateMutability": "view",
      "type": "function",
      "constant": true
    },
    {
      "inputs": [],
      "name": "renounceOwnership",
      "outputs": [],
      "stateMutability": "nonpayable",
      "type": "function"
    },
    {
      "inputs": [
        {
          "internalType": "address",
          "name": "newOwner",
          "type": "address"
        }
      ],
      "name": "transferOwnership",
      "outputs": [],
      "stateMutability": "nonpayable",
      "type": "function"
    },
    {
      "inputs": [
        {
          "internalType": "address",
          "name": "",
          "type": "address"
        }
      ],
      "name": "userContracts",
      "outputs": [
        {
          "internalType": "bool",
          "name": "",
          "type": "bool"
        }
      ],
      "stateMutability": "view",
      "type": "function",
      "constant": true
    },
    {
      "inputs": [
        {
          "internalType": "address",
          "name": "",
          "type": "address"
        }
      ],
      "name": "vendorContracts",
      "outputs": [
        {
          "internalType": "bool",
          "name": "",
          "type": "bool"
        }
      ],
      "stateMutability": "view",
      "type": "function",
      "constant": true
    },
    {
      "inputs": [
        {
          "internalType": "address",
          "name": "_userAddress",
          "type": "address"
        }
      ],
      "name": "createUserContract",
      "outputs": [
        {
          "internalType": "address",
          "name": "",
          "type": "address"
        }
      ],
      "stateMutability": "nonpayable",
      "type": "function"
    },
    {
      "inputs": [
        {
          "internalType": "address",
          "name": "_vendorAddress",
          "type": "address"
        },
        {
          "internalType": "uint256",
          "name": "_maxPurchases",
          "type": "uint256"
        },
        {
          "internalType": "uint256",
          "name": "_balance",
          "type": "uint256"
        }
      ],
      "name": "createVendorContract",
      "outputs": [
        {
          "internalType": "address",
          "name": "",
          "type": "address"
        }
      ],
      "stateMutability": "nonpayable",
      "type": "function"
    },
    {
      "inputs": [
        {
          "internalType": "address",
          "name": "_vendorAddress",
          "type": "address"
        },
        {
          "internalType": "address",
          "name": "_userAddress",
          "type": "address"
        },
        {
          "internalType": "uint256",
          "name": "_balance",
          "type": "uint256"
        }
      ],
      "name": "transferFromVendorToUser",
      "outputs": [],
      "stateMutability": "nonpayable",
      "type": "function"
    },
    {
      "inputs": [
        {
          "internalType": "address",
          "name": "_userAddress",
          "type": "address"
        },
        {
          "internalType": "uint256",
          "name": "_balance",
          "type": "uint256"
        }
      ],
      "name": "spendTokens",
      "outputs": [],
      "stateMutability": "nonpayable",
      "type": "function"
    },
    {
      "inputs": [
        {
          "internalType": "address",
          "name": "_userAddress",
          "type": "address"
        },
        {
          "internalType": "uint256",
          "name": "_balance",
          "type": "uint256"
        }
      ],
      "name": "issueTokensUser",
      "outputs": [],
      "stateMutability": "nonpayable",
      "type": "function"
    },
    {
      "inputs": [
        {
          "internalType": "address",
          "name": "_vendorAddress",
          "type": "address"
        },
        {
          "internalType": "uint256",
          "name": "_balance",
          "type": "uint256"
        }
      ],
      "name": "issueTokensVendor",
      "outputs": [],
      "stateMutability": "nonpayable",
      "type": "function"
    }
  ],
  "bytecode": "0x60e06040523480156200001157600080fd5b50604051620023e4380380620023e4833981810160405281019062000037919062000273565b620000576200004b6200013d60201b60201c565b6200014560201b60201c565b8273ffffffffffffffffffffffffffffffffffffffff1660808173ffffffffffffffffffffffffffffffffffffffff168152505082600560006101000a81548173ffffffffffffffffffffffffffffffffffffffff021916908373ffffffffffffffffffffffffffffffffffffffff1602179055508173ffffffffffffffffffffffffffffffffffffffff1660a08173ffffffffffffffffffffffffffffffffffffffff16815250508073ffffffffffffffffffffffffffffffffffffffff1660c08173ffffffffffffffffffffffffffffffffffffffff1681525050505050620002cf565b600033905090565b60008060009054906101000a900473ffffffffffffffffffffffffffffffffffffffff169050816000806101000a81548173ffffffffffffffffffffffffffffffffffffffff021916908373ffffffffffffffffffffffffffffffffffffffff1602179055508173ffffffffffffffffffffffffffffffffffffffff168173ffffffffffffffffffffffffffffffffffffffff167f8be0079c531659141344cd1fd0a4f28419497f9722a3daafe3b4186f6b6457e060405160405180910390a35050565b600080fd5b600073ffffffffffffffffffffffffffffffffffffffff82169050919050565b60006200023b826200020e565b9050919050565b6200024d816200022e565b81146200025957600080fd5b50565b6000815190506200026d8162000242565b92915050565b6000806000606084860312156200028f576200028e62000209565b5b60006200029f868287016200025c565b9350506020620002b2868287016200025c565b9250506040620002c5868287016200025c565b9150509250925092565b60805160a05160c0516120de6200030660003960006106de015260006111d5015260008181610720015261121701526120de6000f3fe608060405234801561001057600080fd5b50600436106100ea5760003560e01c8063770aa84d1161008c5780639e221675116100665780639e22167514610235578063a46ead2414610265578063e3e6ea6714610295578063f2fde38b146102c5576100ea565b8063770aa84d146101dd5780638da5cb5b146101fb57806398cc1d7814610219576100ea565b8063386906e6116100c8578063386906e61461016b5780634216a291146101875780635dec8ae9146101b7578063715018a6146101d3576100ea565b80630687b785146100ef57806322dea47c1461011f57806325796b061461013b575b600080fd5b61010960048036038101906101049190611804565b6102e1565b604051610116919061184c565b60405180910390f35b6101396004803603810190610134919061189d565b610301565b005b61015560048036038101906101509190611804565b610487565b60405161016291906118ec565b60405180910390f35b6101856004803603810190610180919061189d565b6104ba565b005b6101a1600480360381019061019c9190611907565b610640565b6040516101ae91906118ec565b60405180910390f35b6101d160048036038101906101cc919061189d565b6109d3565b005b6101db610c96565b005b6101e5610caa565b6040516101f291906119b9565b60405180910390f35b610203610cd0565b60405161021091906118ec565b60405180910390f35b610233600480360381019061022e91906119d4565b610cf9565b005b61024f600480360381019061024a9190611804565b611137565b60405161025c91906118ec565b60405180910390f35b61027f600480360381019061027a9190611804565b6114c7565b60405161028c919061184c565b60405180910390f35b6102af60048036038101906102aa9190611804565b6114e7565b6040516102bc91906118ec565b60405180910390f35b6102df60048036038101906102da9190611804565b61151a565b005b60026020528060005260406000206000915054906101000a900460ff1681565b61030961159d565b600260008373ffffffffffffffffffffffffffffffffffffffff1673ffffffffffffffffffffffffffffffffffffffff16815260200190815260200160002060009054906101000a900460ff16610395576040517f08c379a000000000000000000000000000000000000000000000000000000000815260040161038c90611a84565b60405180910390fd5b600560009054906101000a900473ffffffffffffffffffffffffffffffffffffffff1673ffffffffffffffffffffffffffffffffffffffff1663d0dbc833600160008573ffffffffffffffffffffffffffffffffffffffff1673ffffffffffffffffffffffffffffffffffffffff16815260200190815260200160002060009054906101000a900473ffffffffffffffffffffffffffffffffffffffff16836040518363ffffffff1660e01b8152600401610451929190611ab3565b600060405180830381600087803b15801561046b57600080fd5b505af115801561047f573d6000803e3d6000fd5b505050505050565b60016020528060005260406000206000915054906101000a900473ffffffffffffffffffffffffffffffffffffffff1681565b6104c261159d565b600460008373ffffffffffffffffffffffffffffffffffffffff1673ffffffffffffffffffffffffffffffffffffffff16815260200190815260200160002060009054906101000a900460ff1661054e576040517f08c379a000000000000000000000000000000000000000000000000000000000815260040161054590611b28565b60405180910390fd5b600560009054906101000a900473ffffffffffffffffffffffffffffffffffffffff1673ffffffffffffffffffffffffffffffffffffffff1663d0dbc833600360008573ffffffffffffffffffffffffffffffffffffffff1673ffffffffffffffffffffffffffffffffffffffff16815260200190815260200160002060009054906101000a900473ffffffffffffffffffffffffffffffffffffffff16836040518363ffffffff1660e01b815260040161060a929190611ab3565b600060405180830381600087803b15801561062457600080fd5b505af1158015610638573d6000803e3d6000fd5b505050505050565b600061064a61159d565b600460008573ffffffffffffffffffffffffffffffffffffffff1673ffffffffffffffffffffffffffffffffffffffff16815260200190815260200160002060009054906101000a900460ff16156106d7576040517f08c379a00000000000000000000000000000000000000000000000000000000081526004016106ce90611b94565b60405180910390fd5b60006107027f000000000000000000000000000000000000000000000000000000000000000061161b565b905060008173ffffffffffffffffffffffffffffffffffffffff16867f00000000000000000000000000000000000000000000000000000000000000008760405160240161075293929190611bb4565b6040516020818303038152906040527f1794bb3c000000000000000000000000000000000000000000000000000000007bffffffffffffffffffffffffffffffffffffffffffffffffffffffff19166020820180517bffffffffffffffffffffffffffffffffffffffffffffffffffffffff83818316178352505050506040516107dc9190611c5c565b6000604051808303816000865af19150503d8060008114610819576040519150601f19603f3d011682016040523d82523d6000602084013e61081e565b606091505b5050905080610862576040517f08c379a000000000000000000000000000000000000000000000000000000000815260040161085990611ce5565b60405180910390fd5b81600360008873ffffffffffffffffffffffffffffffffffffffff1673ffffffffffffffffffffffffffffffffffffffff16815260200190815260200160002060006101000a81548173ffffffffffffffffffffffffffffffffffffffff021916908373ffffffffffffffffffffffffffffffffffffffff1602179055506001600460008873ffffffffffffffffffffffffffffffffffffffff1673ffffffffffffffffffffffffffffffffffffffff16815260200190815260200160002060006101000a81548160ff021916908315150217905550600560009054906101000a900473ffffffffffffffffffffffffffffffffffffffff1673ffffffffffffffffffffffffffffffffffffffff1663d0dbc83383866040518363ffffffff1660e01b8152600401610995929190611ab3565b600060405180830381600087803b1580156109af57600080fd5b505af11580156109c3573d6000803e3d6000fd5b5050505081925050509392505050565b6109db61159d565b600260008373ffffffffffffffffffffffffffffffffffffffff1673ffffffffffffffffffffffffffffffffffffffff16815260200190815260200160002060009054906101000a900460ff16610a67576040517f08c379a0000000000000000000000000000000000000000000000000000000008152600401610a5e90611a84565b60405180910390fd5b80600560009054906101000a900473ffffffffffffffffffffffffffffffffffffffff1673ffffffffffffffffffffffffffffffffffffffff166370a08231600160008673ffffffffffffffffffffffffffffffffffffffff1673ffffffffffffffffffffffffffffffffffffffff16815260200190815260200160002060009054906101000a900473ffffffffffffffffffffffffffffffffffffffff166040518263ffffffff1660e01b8152600401610b2291906118ec565b602060405180830381865afa158015610b3f573d6000803e3d6000fd5b505050506040513d601f19601f82011682018060405250810190610b639190611d1a565b1015610ba4576040517f08c379a0000000000000000000000000000000000000000000000000000000008152600401610b9b90611db9565b60405180910390fd5b600560009054906101000a900473ffffffffffffffffffffffffffffffffffffffff1673ffffffffffffffffffffffffffffffffffffffff16639dc29fac600160008573ffffffffffffffffffffffffffffffffffffffff1673ffffffffffffffffffffffffffffffffffffffff16815260200190815260200160002060009054906101000a900473ffffffffffffffffffffffffffffffffffffffff16836040518363ffffffff1660e01b8152600401610c60929190611ab3565b600060405180830381600087803b158015610c7a57600080fd5b505af1158015610c8e573d6000803e3d6000fd5b505050505050565b610c9e61159d565b610ca860006116d5565b565b600560009054906101000a900473ffffffffffffffffffffffffffffffffffffffff1681565b60008060009054906101000a900473ffffffffffffffffffffffffffffffffffffffff16905090565b610d0161159d565b600460008473ffffffffffffffffffffffffffffffffffffffff1673ffffffffffffffffffffffffffffffffffffffff16815260200190815260200160002060009054906101000a900460ff16610d8d576040517f08c379a0000000000000000000000000000000000000000000000000000000008152600401610d8490611b28565b60405180910390fd5b600260008373ffffffffffffffffffffffffffffffffffffffff1673ffffffffffffffffffffffffffffffffffffffff16815260200190815260200160002060009054906101000a900460ff16610e19576040517f08c379a0000000000000000000000000000000000000000000000000000000008152600401610e1090611a84565b60405180910390fd5b80600560009054906101000a900473ffffffffffffffffffffffffffffffffffffffff1673ffffffffffffffffffffffffffffffffffffffff166370a08231600360008773ffffffffffffffffffffffffffffffffffffffff1673ffffffffffffffffffffffffffffffffffffffff16815260200190815260200160002060009054906101000a900473ffffffffffffffffffffffffffffffffffffffff166040518263ffffffff1660e01b8152600401610ed491906118ec565b602060405180830381865afa158015610ef1573d6000803e3d6000fd5b505050506040513d601f19601f82011682018060405250810190610f159190611d1a565b1015610f56576040517f08c379a0000000000000000000000000000000000000000000000000000000008152600401610f4d90611db9565b60405180910390fd5b600560009054906101000a900473ffffffffffffffffffffffffffffffffffffffff1673ffffffffffffffffffffffffffffffffffffffff16639dc29fac600360008673ffffffffffffffffffffffffffffffffffffffff1673ffffffffffffffffffffffffffffffffffffffff16815260200190815260200160002060009054906101000a900473ffffffffffffffffffffffffffffffffffffffff16836040518363ffffffff1660e01b8152600401611012929190611ab3565b600060405180830381600087803b15801561102c57600080fd5b505af1158015611040573d6000803e3d6000fd5b50505050600560009054906101000a900473ffffffffffffffffffffffffffffffffffffffff1673ffffffffffffffffffffffffffffffffffffffff1663d0dbc833600160008573ffffffffffffffffffffffffffffffffffffffff1673ffffffffffffffffffffffffffffffffffffffff16815260200190815260200160002060009054906101000a900473ffffffffffffffffffffffffffffffffffffffff16836040518363ffffffff1660e01b8152600401611100929190611ab3565b600060405180830381600087803b15801561111a57600080fd5b505af115801561112e573d6000803e3d6000fd5b50505050505050565b600061114161159d565b600260008373ffffffffffffffffffffffffffffffffffffffff1673ffffffffffffffffffffffffffffffffffffffff16815260200190815260200160002060009054906101000a900460ff16156111ce576040517f08c379a00000000000000000000000000000000000000000000000000000000081526004016111c590611e25565b60405180910390fd5b60006111f97f000000000000000000000000000000000000000000000000000000000000000061161b565b905060008173ffffffffffffffffffffffffffffffffffffffff16847f0000000000000000000000000000000000000000000000000000000000000000604051602401611247929190611e45565b6040516020818303038152906040527f485cc955000000000000000000000000000000000000000000000000000000007bffffffffffffffffffffffffffffffffffffffffffffffffffffffff19166020820180517bffffffffffffffffffffffffffffffffffffffffffffffffffffffff83818316178352505050506040516112d19190611c5c565b6000604051808303816000865af19150503d806000811461130e576040519150601f19603f3d011682016040523d82523d6000602084013e611313565b606091505b5050905080611357576040517f08c379a000000000000000000000000000000000000000000000000000000000815260040161134e90611eba565b60405180910390fd5b81600160008673ffffffffffffffffffffffffffffffffffffffff1673ffffffffffffffffffffffffffffffffffffffff16815260200190815260200160002060006101000a81548173ffffffffffffffffffffffffffffffffffffffff021916908373ffffffffffffffffffffffffffffffffffffffff1602179055506001600260008673ffffffffffffffffffffffffffffffffffffffff1673ffffffffffffffffffffffffffffffffffffffff16815260200190815260200160002060006101000a81548160ff021916908315150217905550600560009054906101000a900473ffffffffffffffffffffffffffffffffffffffff1673ffffffffffffffffffffffffffffffffffffffff1663d0dbc8338360646040518363ffffffff1660e01b815260040161148b929190611f15565b600060405180830381600087803b1580156114a557600080fd5b505af11580156114b9573d6000803e3d6000fd5b505050508192505050919050565b60046020528060005260406000206000915054906101000a900460ff1681565b60036020528060005260406000206000915054906101000a900473ffffffffffffffffffffffffffffffffffffffff1681565b61152261159d565b600073ffffffffffffffffffffffffffffffffffffffff168173ffffffffffffffffffffffffffffffffffffffff1603611591576040517f08c379a000000000000000000000000000000000000000000000000000000000815260040161158890611fb0565b60405180910390fd5b61159a816116d5565b50565b6115a5611799565b73ffffffffffffffffffffffffffffffffffffffff166115c3610cd0565b73ffffffffffffffffffffffffffffffffffffffff1614611619576040517f08c379a00000000000000000000000000000000000000000000000000000000081526004016116109061201c565b60405180910390fd5b565b6000763d602d80600a3d3981f3363d3d373d3d3d363d730000008260601b60e81c176000526e5af43d82803e903d91602b57fd5bf38260781b17602052603760096000f09050600073ffffffffffffffffffffffffffffffffffffffff168173ffffffffffffffffffffffffffffffffffffffff16036116d0576040517f08c379a00000000000000000000000000000000000000000000000000000000081526004016116c790612088565b60405180910390fd5b919050565b60008060009054906101000a900473ffffffffffffffffffffffffffffffffffffffff169050816000806101000a81548173ffffffffffffffffffffffffffffffffffffffff021916908373ffffffffffffffffffffffffffffffffffffffff1602179055508173ffffffffffffffffffffffffffffffffffffffff168173ffffffffffffffffffffffffffffffffffffffff167f8be0079c531659141344cd1fd0a4f28419497f9722a3daafe3b4186f6b6457e060405160405180910390a35050565b600033905090565b600080fd5b600073ffffffffffffffffffffffffffffffffffffffff82169050919050565b60006117d1826117a6565b9050919050565b6117e1816117c6565b81146117ec57600080fd5b50565b6000813590506117fe816117d8565b92915050565b60006020828403121561181a576118196117a1565b5b6000611828848285016117ef565b91505092915050565b60008115159050919050565b61184681611831565b82525050565b6000602082019050611861600083018461183d565b92915050565b6000819050919050565b61187a81611867565b811461188557600080fd5b50565b60008135905061189781611871565b92915050565b600080604083850312156118b4576118b36117a1565b5b60006118c2858286016117ef565b92505060206118d385828601611888565b9150509250929050565b6118e6816117c6565b82525050565b600060208201905061190160008301846118dd565b92915050565b6000806000606084860312156119205761191f6117a1565b5b600061192e868287016117ef565b935050602061193f86828701611888565b925050604061195086828701611888565b9150509250925092565b6000819050919050565b600061197f61197a611975846117a6565b61195a565b6117a6565b9050919050565b600061199182611964565b9050919050565b60006119a382611986565b9050919050565b6119b381611998565b82525050565b60006020820190506119ce60008301846119aa565b92915050565b6000806000606084860312156119ed576119ec6117a1565b5b60006119fb868287016117ef565b9350506020611a0c868287016117ef565b9250506040611a1d86828701611888565b9150509250925092565b600082825260208201905092915050565b7f5573657220646f65736e27742065786973740000000000000000000000000000600082015250565b6000611a6e601283611a27565b9150611a7982611a38565b602082019050919050565b60006020820190508181036000830152611a9d81611a61565b9050919050565b611aad81611867565b82525050565b6000604082019050611ac860008301856118dd565b611ad56020830184611aa4565b9392505050565b7f56656e646f7220646f65736e2774206578697374000000000000000000000000600082015250565b6000611b12601483611a27565b9150611b1d82611adc565b602082019050919050565b60006020820190508181036000830152611b4181611b05565b9050919050565b7f76656e646f7220636f6e747261637420616c7265616479206578697374730000600082015250565b6000611b7e601e83611a27565b9150611b8982611b48565b602082019050919050565b60006020820190508181036000830152611bad81611b71565b9050919050565b6000606082019050611bc960008301866118dd565b611bd660208301856118dd565b611be36040830184611aa4565b949350505050565b600081519050919050565b600081905092915050565b60005b83811015611c1f578082015181840152602081019050611c04565b60008484015250505050565b6000611c3682611beb565b611c408185611bf6565b9350611c50818560208601611c01565b80840191505092915050565b6000611c688284611c2b565b915081905092915050565b7f6372656174696f6e206f662076656e646f7220636f6e7472616374206661696c60008201527f6564000000000000000000000000000000000000000000000000000000000000602082015250565b6000611ccf602283611a27565b9150611cda82611c73565b604082019050919050565b60006020820190508181036000830152611cfe81611cc2565b9050919050565b600081519050611d1481611871565b92915050565b600060208284031215611d3057611d2f6117a1565b5b6000611d3e84828501611d05565b91505092915050565b7f56656e646f7220646f65736e2774206861766520656e6f7567682062616c616e60008201527f6365000000000000000000000000000000000000000000000000000000000000602082015250565b6000611da3602283611a27565b9150611dae82611d47565b604082019050919050565b60006020820190508181036000830152611dd281611d96565b9050919050565b7f7573657220636f6e747261637420616c72656164792065786973747300000000600082015250565b6000611e0f601c83611a27565b9150611e1a82611dd9565b602082019050919050565b60006020820190508181036000830152611e3e81611e02565b9050919050565b6000604082019050611e5a60008301856118dd565b611e6760208301846118dd565b9392505050565b7f6372656174696f6e206f66207573657220636f6e7472616374206661696c6564600082015250565b6000611ea4602083611a27565b9150611eaf82611e6e565b602082019050919050565b60006020820190508181036000830152611ed381611e97565b9050919050565b6000819050919050565b6000611eff611efa611ef584611eda565b61195a565b611867565b9050919050565b611f0f81611ee4565b82525050565b6000604082019050611f2a60008301856118dd565b611f376020830184611f06565b9392505050565b7f4f776e61626c653a206e6577206f776e657220697320746865207a65726f206160008201527f6464726573730000000000000000000000000000000000000000000000000000602082015250565b6000611f9a602683611a27565b9150611fa582611f3e565b604082019050919050565b60006020820190508181036000830152611fc981611f8d565b9050919050565b7f4f776e61626c653a2063616c6c6572206973206e6f7420746865206f776e6572600082015250565b6000612006602083611a27565b915061201182611fd0565b602082019050919050565b6000602082019050818103600083015261203581611ff9565b9050919050565b7f455243313136373a20637265617465206661696c656400000000000000000000600082015250565b6000612072601683611a27565b915061207d8261203c565b602082019050919050565b600060208201905081810360008301526120a181612065565b905091905056fea2646970667358221220b9d25d035f87dd92a9c3e70b8d709dc690adbb231b07bac6cdb7b01b5338795864736f6c63430008120033",
  "immutableReferences": {
    "1414": [
      {
        "length": 32,
        "start": 1824
      },
      {
        "length": 32,
        "start": 4631
      }
    ],
    "1416": [
      {
        "length": 32,
        "start": 4565
      }
    ],
    "1418": [
      {
        "length": 32,
        "start": 1758
      }
    ]
  },
  "source": "//SPDX-License-Identifier:MIT\r\npragma solidity ^0.8.2;\r\n\r\nimport \"@openzeppelin/contracts/proxy/Clones.sol\";\r\nimport \"@openzeppelin/contracts/access/Ownable.sol\";\r\nimport \"./UserContract.sol\";\r\nimport \"./VendorContract.sol\";\r\nimport \"./LoyaltyToken.sol\";\r\n\r\ncontract FactoryContract is Ownable {\r\n\r\n    address immutable loyaltyTokenAddress;\r\n    address immutable userContractAddress;\r\n    address immutable vendorContractAddress;\r\n    mapping(address => address) public deployedUserContracts;\r\n    mapping(address => bool) public userContracts;\r\n    mapping(address => address) public deployedVendorContracts;\r\n    mapping(address => bool) public vendorContracts;\r\n    LoyaltyToken public loyaltyToken;\r\n\r\n    constructor(\r\n        address _loyaltyTokenAddress,\r\n        address _userContractAddress,\r\n        address _vendorContractAddress\r\n    ) Ownable() {\r\n        loyaltyTokenAddress = _loyaltyTokenAddress;\r\n        loyaltyToken = LoyaltyToken(_loyaltyTokenAddress);\r\n        userContractAddress = _userContractAddress;\r\n        vendorContractAddress = _vendorContractAddress;\r\n    }\r\n\r\n    function createUserContract(address _userAddress) external onlyOwner returns (address) {\r\n        require(!userContracts[_userAddress], \"user contract already exists\");\r\n        address clone = Clones.clone(userContractAddress);\r\n        (bool success, ) = clone.call(\r\n            abi.encodeWithSignature(\r\n                \"initialize(address,address)\",\r\n                _userAddress,\r\n                loyaltyTokenAddress\r\n            )\r\n        );\r\n        require(success, \"creation of user contract failed\");\r\n        deployedUserContracts[_userAddress] = clone;\r\n        userContracts[_userAddress] = true;\r\n        loyaltyToken.mintForUser(clone, 100);\r\n        return clone;\r\n    }\r\n\r\n    function createVendorContract(\r\n        address _vendorAddress,\r\n        uint256 _maxPurchases,\r\n        uint256 _balance\r\n    ) external onlyOwner returns (address) {\r\n        require(!vendorContracts[_vendorAddress], \"vendor contract already exists\");\r\n        address clone = Clones.clone(vendorContractAddress);\r\n        (bool success, ) = clone.call(\r\n            abi.encodeWithSignature(\r\n                \"initialize(address,address,uint256)\",\r\n                _vendorAddress,\r\n                loyaltyTokenAddress,\r\n                _maxPurchases\r\n            )\r\n        );\r\n        require(success, \"creation of vendor contract failed\");\r\n        deployedVendorContracts[_vendorAddress] = clone;\r\n        vendorContracts[_vendorAddress] = true;\r\n        loyaltyToken.mintForUser(clone, _balance);\r\n        return clone;\r\n    }\r\n\r\n    function transferFromVendorToUser(address _vendorAddress, address _userAddress, uint _balance) external onlyOwner {\r\n        require(vendorContracts[_vendorAddress], \"Vendor doesn't exist\");\r\n        require(userContracts[_userAddress], \"User doesn't exist\");\r\n        require(loyaltyToken.balanceOf(deployedVendorContracts[_vendorAddress])>=_balance, \"Vendor doesn't have enough balance\");\r\n        loyaltyToken.burn(deployedVendorContracts[_vendorAddress], _balance);\r\n        loyaltyToken.mintForUser(deployedUserContracts[_userAddress], _balance);\r\n    }\r\n\r\n    function spendTokens(address _userAddress, uint256 _balance) external onlyOwner {\r\n        require(userContracts[_userAddress], \"User doesn't exist\");\r\n        require(loyaltyToken.balanceOf(deployedUserContracts[_userAddress])>=_balance, \"Vendor doesn't have enough balance\");\r\n        loyaltyToken.burn(deployedUserContracts[_userAddress], _balance);\r\n    }\r\n\r\n    function issueTokensUser(address _userAddress, uint256 _balance) external onlyOwner {\r\n        require(userContracts[_userAddress], \"User doesn't exist\");\r\n        loyaltyToken.mintForUser(deployedUserContracts[_userAddress], _balance);\r\n    }\r\n\r\n    function issueTokensVendor(address _vendorAddress, uint256 _balance) external onlyOwner {\r\n        require(vendorContracts[_vendorAddress], \"Vendor doesn't exist\");\r\n        loyaltyToken.mintForUser(deployedVendorContracts[_vendorAddress], _balance);\r\n    }\r\n}",
  "sourcePath": "D:\\Blockchain\\GRiD\\blockchain\\contracts\\FactoryContract.sol",
  "compiler": {
    "name": "solc",
    "version": "0.8.18+commit.87f61d96.Emscripten.clang"
  },
  "schemaVersion": "3.4.15",
  "updatedAt": "2023-08-19T09:13:17.516Z",
  "networkType": "ethereum",
  "devdoc": {
    "kind": "dev",
    "methods": {
      "owner()": {
        "details": "Returns the address of the current owner."
      },
      "renounceOwnership()": {
        "details": "Leaves the contract without owner. It will not be possible to call `onlyOwner` functions. Can only be called by the current owner. NOTE: Renouncing ownership will leave the contract without an owner, thereby disabling any functionality that is only available to the owner."
      },
      "transferOwnership(address)": {
        "details": "Transfers ownership of the contract to a new account (`newOwner`). Can only be called by the current owner."
      }
    },
    "version": 1
  },
  "userdoc": {
    "kind": "user",
    "methods": {},
    "version": 1
  }
}