{
  "contractName": "FactoryContract",
  "abi": [
    {
      "inputs": [
        {
          "internalType": "address",
          "name": "_loyaltyTokenAddress",
          "type": "address"
        },
        {
          "internalType": "address",
          "name": "_userContractAddress",
          "type": "address"
        },
        {
          "internalType": "address",
          "name": "_vendorContractAddress",
          "type": "address"
        }
      ],
      "stateMutability": "nonpayable",
      "type": "constructor"
    },
    {
      "anonymous": false,
      "inputs": [
        {
          "indexed": true,
          "internalType": "address",
          "name": "previousOwner",
          "type": "address"
        },
        {
          "indexed": true,
          "internalType": "address",
          "name": "newOwner",
          "type": "address"
        }
      ],
      "name": "OwnershipTransferred",
      "type": "event"
    },
    {
      "inputs": [
        {
          "internalType": "address",
          "name": "",
          "type": "address"
        }
      ],
      "name": "deployedUserContracts",
      "outputs": [
        {
          "internalType": "address",
          "name": "",
          "type": "address"
        }
      ],
      "stateMutability": "view",
      "type": "function",
      "constant": true
    },
    {
      "inputs": [
        {
          "internalType": "address",
          "name": "",
          "type": "address"
        }
      ],
      "name": "deployedVendorContracts",
      "outputs": [
        {
          "internalType": "address",
          "name": "",
          "type": "address"
        }
      ],
      "stateMutability": "view",
      "type": "function",
      "constant": true
    },
    {
      "inputs": [],
      "name": "owner",
      "outputs": [
        {
          "internalType": "address",
          "name": "",
          "type": "address"
        }
      ],
      "stateMutability": "view",
      "type": "function",
      "constant": true
    },
    {
      "inputs": [],
      "name": "renounceOwnership",
      "outputs": [],
      "stateMutability": "nonpayable",
      "type": "function"
    },
    {
      "inputs": [
        {
          "internalType": "address",
          "name": "newOwner",
          "type": "address"
        }
      ],
      "name": "transferOwnership",
      "outputs": [],
      "stateMutability": "nonpayable",
      "type": "function"
    },
    {
      "inputs": [
        {
          "internalType": "address",
          "name": "",
          "type": "address"
        }
      ],
      "name": "userContracts",
      "outputs": [
        {
          "internalType": "bool",
          "name": "",
          "type": "bool"
        }
      ],
      "stateMutability": "view",
      "type": "function",
      "constant": true
    },
    {
      "inputs": [
        {
          "internalType": "address",
          "name": "",
          "type": "address"
        }
      ],
      "name": "vendorContracts",
      "outputs": [
        {
          "internalType": "bool",
          "name": "",
          "type": "bool"
        }
      ],
      "stateMutability": "view",
      "type": "function",
      "constant": true
    },
    {
      "inputs": [
        {
          "internalType": "address",
          "name": "_userAddress",
          "type": "address"
        }
      ],
      "name": "createUserContract",
      "outputs": [
        {
          "internalType": "address",
          "name": "",
          "type": "address"
        }
      ],
      "stateMutability": "nonpayable",
      "type": "function"
    },
    {
      "inputs": [
        {
          "internalType": "address",
          "name": "_vendorAddress",
          "type": "address"
        },
        {
          "internalType": "uint256",
          "name": "_maxPurchases",
          "type": "uint256"
        },
        {
          "internalType": "uint256",
          "name": "_balance",
          "type": "uint256"
        }
      ],
      "name": "createVendorContract",
      "outputs": [
        {
          "internalType": "address",
          "name": "",
          "type": "address"
        }
      ],
      "stateMutability": "nonpayable",
      "type": "function"
    }
  ],
  "bytecode": "0x60e06040523480156200001157600080fd5b506040516200142638038062001426833981810160405281019062000037919062000232565b620000576200004b620000fc60201b60201c565b6200010460201b60201c565b8273ffffffffffffffffffffffffffffffffffffffff1660808173ffffffffffffffffffffffffffffffffffffffff16815250508173ffffffffffffffffffffffffffffffffffffffff1660a08173ffffffffffffffffffffffffffffffffffffffff16815250508073ffffffffffffffffffffffffffffffffffffffff1660c08173ffffffffffffffffffffffffffffffffffffffff16815250505050506200028e565b600033905090565b60008060009054906101000a900473ffffffffffffffffffffffffffffffffffffffff169050816000806101000a81548173ffffffffffffffffffffffffffffffffffffffff021916908373ffffffffffffffffffffffffffffffffffffffff1602179055508173ffffffffffffffffffffffffffffffffffffffff168173ffffffffffffffffffffffffffffffffffffffff167f8be0079c531659141344cd1fd0a4f28419497f9722a3daafe3b4186f6b6457e060405160405180910390a35050565b600080fd5b600073ffffffffffffffffffffffffffffffffffffffff82169050919050565b6000620001fa82620001cd565b9050919050565b6200020c81620001ed565b81146200021857600080fd5b50565b6000815190506200022c8162000201565b92915050565b6000806000606084860312156200024e576200024d620001c8565b5b60006200025e868287016200021b565b935050602062000271868287016200021b565b925050604062000284868287016200021b565b9150509250925092565b60805160a05160c051611161620002c560003960006102e501526000610620015260008181610327015261066201526111616000f3fe608060405234801561001057600080fd5b50600436106100935760003560e01c80638da5cb5b116100665780638da5cb5b146101325780639e22167514610150578063a46ead2414610180578063e3e6ea67146101b0578063f2fde38b146101e057610093565b80630687b7851461009857806325796b06146100c85780634216a291146100f8578063715018a614610128575b600080fd5b6100b260048036038101906100ad9190610bbf565b6101fc565b6040516100bf9190610c07565b60405180910390f35b6100e260048036038101906100dd9190610bbf565b61021c565b6040516100ef9190610c31565b60405180910390f35b610112600480360381019061010d9190610c82565b61024f565b60405161011f9190610c31565b60405180910390f35b61013061054d565b005b61013a610561565b6040516101479190610c31565b60405180910390f35b61016a60048036038101906101659190610bbf565b61058a565b6040516101779190610c31565b60405180910390f35b61019a60048036038101906101959190610bbf565b610882565b6040516101a79190610c07565b60405180910390f35b6101ca60048036038101906101c59190610bbf565b6108a2565b6040516101d79190610c31565b60405180910390f35b6101fa60048036038101906101f59190610bbf565b6108d5565b005b60026020528060005260406000206000915054906101000a900460ff1681565b60016020528060005260406000206000915054906101000a900473ffffffffffffffffffffffffffffffffffffffff1681565b6000600460008573ffffffffffffffffffffffffffffffffffffffff1673ffffffffffffffffffffffffffffffffffffffff16815260200190815260200160002060009054906101000a900460ff16156102de576040517f08c379a00000000000000000000000000000000000000000000000000000000081526004016102d590610d32565b60405180910390fd5b60006103097f0000000000000000000000000000000000000000000000000000000000000000610958565b905060008173ffffffffffffffffffffffffffffffffffffffff16867f0000000000000000000000000000000000000000000000000000000000000000878760405160240161035b9493929190610d61565b6040516020818303038152906040527feb990c59000000000000000000000000000000000000000000000000000000007bffffffffffffffffffffffffffffffffffffffffffffffffffffffff19166020820180517bffffffffffffffffffffffffffffffffffffffffffffffffffffffff83818316178352505050506040516103e59190610e17565b6000604051808303816000865af19150503d8060008114610422576040519150601f19603f3d011682016040523d82523d6000602084013e610427565b606091505b505090508061046b576040517f08c379a000000000000000000000000000000000000000000000000000000000815260040161046290610ea0565b60405180910390fd5b81600360008873ffffffffffffffffffffffffffffffffffffffff1673ffffffffffffffffffffffffffffffffffffffff16815260200190815260200160002060006101000a81548173ffffffffffffffffffffffffffffffffffffffff021916908373ffffffffffffffffffffffffffffffffffffffff1602179055506001600460008873ffffffffffffffffffffffffffffffffffffffff1673ffffffffffffffffffffffffffffffffffffffff16815260200190815260200160002060006101000a81548160ff02191690831515021790555081925050509392505050565b610555610a12565b61055f6000610a90565b565b60008060009054906101000a900473ffffffffffffffffffffffffffffffffffffffff16905090565b6000600260008373ffffffffffffffffffffffffffffffffffffffff1673ffffffffffffffffffffffffffffffffffffffff16815260200190815260200160002060009054906101000a900460ff1615610619576040517f08c379a000000000000000000000000000000000000000000000000000000000815260040161061090610f0c565b60405180910390fd5b60006106447f0000000000000000000000000000000000000000000000000000000000000000610958565b905060008173ffffffffffffffffffffffffffffffffffffffff16847f0000000000000000000000000000000000000000000000000000000000000000604051602401610692929190610f2c565b6040516020818303038152906040527f485cc955000000000000000000000000000000000000000000000000000000007bffffffffffffffffffffffffffffffffffffffffffffffffffffffff19166020820180517bffffffffffffffffffffffffffffffffffffffffffffffffffffffff838183161783525050505060405161071c9190610e17565b6000604051808303816000865af19150503d8060008114610759576040519150601f19603f3d011682016040523d82523d6000602084013e61075e565b606091505b50509050806107a2576040517f08c379a000000000000000000000000000000000000000000000000000000000815260040161079990610fa1565b60405180910390fd5b81600160008673ffffffffffffffffffffffffffffffffffffffff1673ffffffffffffffffffffffffffffffffffffffff16815260200190815260200160002060006101000a81548173ffffffffffffffffffffffffffffffffffffffff021916908373ffffffffffffffffffffffffffffffffffffffff1602179055506001600260008673ffffffffffffffffffffffffffffffffffffffff1673ffffffffffffffffffffffffffffffffffffffff16815260200190815260200160002060006101000a81548160ff0219169083151502179055508192505050919050565b60046020528060005260406000206000915054906101000a900460ff1681565b60036020528060005260406000206000915054906101000a900473ffffffffffffffffffffffffffffffffffffffff1681565b6108dd610a12565b600073ffffffffffffffffffffffffffffffffffffffff168173ffffffffffffffffffffffffffffffffffffffff160361094c576040517f08c379a000000000000000000000000000000000000000000000000000000000815260040161094390611033565b60405180910390fd5b61095581610a90565b50565b6000763d602d80600a3d3981f3363d3d373d3d3d363d730000008260601b60e81c176000526e5af43d82803e903d91602b57fd5bf38260781b17602052603760096000f09050600073ffffffffffffffffffffffffffffffffffffffff168173ffffffffffffffffffffffffffffffffffffffff1603610a0d576040517f08c379a0000000000000000000000000000000000000000000000000000000008152600401610a049061109f565b60405180910390fd5b919050565b610a1a610b54565b73ffffffffffffffffffffffffffffffffffffffff16610a38610561565b73ffffffffffffffffffffffffffffffffffffffff1614610a8e576040517f08c379a0000000000000000000000000000000000000000000000000000000008152600401610a859061110b565b60405180910390fd5b565b60008060009054906101000a900473ffffffffffffffffffffffffffffffffffffffff169050816000806101000a81548173ffffffffffffffffffffffffffffffffffffffff021916908373ffffffffffffffffffffffffffffffffffffffff1602179055508173ffffffffffffffffffffffffffffffffffffffff168173ffffffffffffffffffffffffffffffffffffffff167f8be0079c531659141344cd1fd0a4f28419497f9722a3daafe3b4186f6b6457e060405160405180910390a35050565b600033905090565b600080fd5b600073ffffffffffffffffffffffffffffffffffffffff82169050919050565b6000610b8c82610b61565b9050919050565b610b9c81610b81565b8114610ba757600080fd5b50565b600081359050610bb981610b93565b92915050565b600060208284031215610bd557610bd4610b5c565b5b6000610be384828501610baa565b91505092915050565b60008115159050919050565b610c0181610bec565b82525050565b6000602082019050610c1c6000830184610bf8565b92915050565b610c2b81610b81565b82525050565b6000602082019050610c466000830184610c22565b92915050565b6000819050919050565b610c5f81610c4c565b8114610c6a57600080fd5b50565b600081359050610c7c81610c56565b92915050565b600080600060608486031215610c9b57610c9a610b5c565b5b6000610ca986828701610baa565b9350506020610cba86828701610c6d565b9250506040610ccb86828701610c6d565b9150509250925092565b600082825260208201905092915050565b7f76656e646f7220636f6e747261637420616c7265616479206578697374730000600082015250565b6000610d1c601e83610cd5565b9150610d2782610ce6565b602082019050919050565b60006020820190508181036000830152610d4b81610d0f565b9050919050565b610d5b81610c4c565b82525050565b6000608082019050610d766000830187610c22565b610d836020830186610c22565b610d906040830185610d52565b610d9d6060830184610d52565b95945050505050565b600081519050919050565b600081905092915050565b60005b83811015610dda578082015181840152602081019050610dbf565b60008484015250505050565b6000610df182610da6565b610dfb8185610db1565b9350610e0b818560208601610dbc565b80840191505092915050565b6000610e238284610de6565b915081905092915050565b7f6372656174696f6e206f662076656e646f7220636f6e7472616374206661696c60008201527f6564000000000000000000000000000000000000000000000000000000000000602082015250565b6000610e8a602283610cd5565b9150610e9582610e2e565b604082019050919050565b60006020820190508181036000830152610eb981610e7d565b9050919050565b7f7573657220636f6e747261637420616c72656164792065786973747300000000600082015250565b6000610ef6601c83610cd5565b9150610f0182610ec0565b602082019050919050565b60006020820190508181036000830152610f2581610ee9565b9050919050565b6000604082019050610f416000830185610c22565b610f4e6020830184610c22565b9392505050565b7f6372656174696f6e206f66207573657220636f6e7472616374206661696c6564600082015250565b6000610f8b602083610cd5565b9150610f9682610f55565b602082019050919050565b60006020820190508181036000830152610fba81610f7e565b9050919050565b7f4f776e61626c653a206e6577206f776e657220697320746865207a65726f206160008201527f6464726573730000000000000000000000000000000000000000000000000000602082015250565b600061101d602683610cd5565b915061102882610fc1565b604082019050919050565b6000602082019050818103600083015261104c81611010565b9050919050565b7f455243313136373a20637265617465206661696c656400000000000000000000600082015250565b6000611089601683610cd5565b915061109482611053565b602082019050919050565b600060208201905081810360008301526110b88161107c565b9050919050565b7f4f776e61626c653a2063616c6c6572206973206e6f7420746865206f776e6572600082015250565b60006110f5602083610cd5565b9150611100826110bf565b602082019050919050565b60006020820190508181036000830152611124816110e8565b905091905056fea264697066735822122059d7f538e513b7ddc5f763f8fa5639ef62de3d2724c916be8a7d01982c898ace64736f6c63430008120033",
  "immutableReferences": {
    "1413": [
      {
        "length": 32,
        "start": 807
      },
      {
        "length": 32,
        "start": 1634
      }
    ],
    "1415": [
      {
        "length": 32,
        "start": 1568
      }
    ],
    "1417": [
      {
        "length": 32,
        "start": 741
      }
    ]
  },
  "source": "//SPDX-License-Identifier:MIT\r\npragma solidity ^0.8.2;\r\n\r\nimport \"@openzeppelin/contracts/proxy/Clones.sol\";\r\nimport \"@openzeppelin/contracts/access/Ownable.sol\";\r\nimport \"./UserContract.sol\";\r\nimport \"./VendorContract.sol\";\r\n\r\ncontract FactoryContract is Ownable {\r\n\r\n    address immutable loyaltyTokenAddress;\r\n    address immutable userContractAddress;\r\n    address immutable vendorContractAddress;\r\n    mapping(address => address) public deployedUserContracts;\r\n    mapping(address => bool) public userContracts;\r\n    mapping(address => address) public deployedVendorContracts;\r\n    mapping(address => bool) public vendorContracts;\r\n\r\n    constructor(\r\n        address _loyaltyTokenAddress,\r\n        address _userContractAddress,\r\n        address _vendorContractAddress\r\n    ) Ownable() {\r\n        loyaltyTokenAddress = _loyaltyTokenAddress;\r\n        userContractAddress = _userContractAddress;\r\n        vendorContractAddress = _vendorContractAddress;\r\n    }\r\n\r\n    function createUserContract(address _userAddress) external returns (address) {\r\n        require(!userContracts[_userAddress], \"user contract already exists\");\r\n        address clone = Clones.clone(userContractAddress);\r\n        (bool success, ) = clone.call(\r\n            abi.encodeWithSignature(\r\n                \"initialize(address,address)\",\r\n                _userAddress,\r\n                loyaltyTokenAddress\r\n            )\r\n        );\r\n        require(success, \"creation of user contract failed\");\r\n        deployedUserContracts[_userAddress] = clone;\r\n        userContracts[_userAddress] = true;\r\n        return clone;\r\n    }\r\n\r\n    function createVendorContract(\r\n        address _vendorAddress,\r\n        uint256 _maxPurchases,\r\n        uint256 _balance\r\n    ) external returns (address) {\r\n        require(!vendorContracts[_vendorAddress], \"vendor contract already exists\");\r\n        address clone = Clones.clone(vendorContractAddress);\r\n        (bool success, ) = clone.call(\r\n            abi.encodeWithSignature(\r\n                \"initialize(address,address,uint256,uint256)\",\r\n                _vendorAddress,\r\n                loyaltyTokenAddress,\r\n                _maxPurchases,\r\n                _balance\r\n            )\r\n        );\r\n        require(success, \"creation of vendor contract failed\");\r\n        deployedVendorContracts[_vendorAddress] = clone;\r\n        vendorContracts[_vendorAddress] = true;\r\n        return clone;\r\n    }\r\n}",
  "sourcePath": "D:\\Blockchain\\GRiD\\blockchain\\contracts\\FactoryContract.sol",
  "compiler": {
    "name": "solc",
    "version": "0.8.18+commit.87f61d96.Emscripten.clang"
  },
  "schemaVersion": "3.4.15",
  "updatedAt": "2023-08-17T16:34:44.207Z",
  "networkType": "ethereum",
  "devdoc": {
    "kind": "dev",
    "methods": {
      "owner()": {
        "details": "Returns the address of the current owner."
      },
      "renounceOwnership()": {
        "details": "Leaves the contract without owner. It will not be possible to call `onlyOwner` functions. Can only be called by the current owner. NOTE: Renouncing ownership will leave the contract without an owner, thereby disabling any functionality that is only available to the owner."
      },
      "transferOwnership(address)": {
        "details": "Transfers ownership of the contract to a new account (`newOwner`). Can only be called by the current owner."
      }
    },
    "version": 1
  },
  "userdoc": {
    "kind": "user",
    "methods": {},
    "version": 1
  }
}