{
  "contractName": "UserContract",
  "abi": [
    {
      "anonymous": false,
      "inputs": [
        {
          "indexed": false,
          "internalType": "uint8",
          "name": "version",
          "type": "uint8"
        }
      ],
      "name": "Initialized",
      "type": "event"
    },
    {
      "inputs": [],
      "name": "deployer",
      "outputs": [
        {
          "internalType": "address",
          "name": "",
          "type": "address"
        }
      ],
      "stateMutability": "view",
      "type": "function"
    },
    {
      "inputs": [],
      "name": "loyaltyToken",
      "outputs": [
        {
          "internalType": "contract LoyaltyToken",
          "name": "",
          "type": "address"
        }
      ],
      "stateMutability": "view",
      "type": "function"
    },
    {
      "inputs": [],
      "name": "owner",
      "outputs": [
        {
          "internalType": "address payable",
          "name": "",
          "type": "address"
        }
      ],
      "stateMutability": "view",
      "type": "function"
    },
    {
      "inputs": [
        {
          "internalType": "address",
          "name": "_ownerAddress",
          "type": "address"
        },
        {
          "internalType": "address",
          "name": "_loyaltyTokenAddress",
          "type": "address"
        }
      ],
      "name": "initialize",
      "outputs": [],
      "stateMutability": "nonpayable",
      "type": "function"
    },
    {
      "inputs": [],
      "name": "getBalance",
      "outputs": [
        {
          "internalType": "uint256",
          "name": "",
          "type": "uint256"
        }
      ],
      "stateMutability": "view",
      "type": "function"
    }
  ],
  "bytecode": "0x608060405234801561001057600080fd5b5061076f806100206000396000f3fe608060405234801561001057600080fd5b50600436106100575760003560e01c806312065fe01461005c578063485cc9551461007a578063770aa84d146100965780638da5cb5b146100b4578063d5f39488146100d2575b600080fd5b6100646100f0565b604051610071919061043c565b60405180910390f35b610094600480360381019061008f91906104ba565b610193565b005b61009e61038e565b6040516100ab9190610559565b60405180910390f35b6100bc6103b4565b6040516100c99190610595565b60405180910390f35b6100da6103da565b6040516100e791906105bf565b60405180910390f35b6000600360009054906101000a900473ffffffffffffffffffffffffffffffffffffffff1673ffffffffffffffffffffffffffffffffffffffff166370a08231306040518263ffffffff1660e01b815260040161014d91906105bf565b602060405180830381865afa15801561016a573d6000803e3d6000fd5b505050506040513d601f19601f8201168201806040525081019061018e9190610606565b905090565b60008060019054906101000a900460ff161590508080156101c45750600160008054906101000a900460ff1660ff16105b806101f157506101d330610400565b1580156101f05750600160008054906101000a900460ff1660ff16145b5b610230576040517f08c379a0000000000000000000000000000000000000000000000000000000008152600401610227906106b6565b60405180910390fd5b60016000806101000a81548160ff021916908360ff160217905550801561026d576001600060016101000a81548160ff0219169083151502179055505b82600060026101000a81548173ffffffffffffffffffffffffffffffffffffffff021916908373ffffffffffffffffffffffffffffffffffffffff16021790555032600160006101000a81548173ffffffffffffffffffffffffffffffffffffffff021916908373ffffffffffffffffffffffffffffffffffffffff16021790555081600360006101000a81548173ffffffffffffffffffffffffffffffffffffffff021916908373ffffffffffffffffffffffffffffffffffffffff16021790555080156103895760008060016101000a81548160ff0219169083151502179055507f7f26b83ff96e1f2b6a682f133852f6798a09c465da95921460cefb38474024986001604051610380919061071e565b60405180910390a15b505050565b600360009054906101000a900473ffffffffffffffffffffffffffffffffffffffff1681565b600060029054906101000a900473ffffffffffffffffffffffffffffffffffffffff1681565b600160009054906101000a900473ffffffffffffffffffffffffffffffffffffffff1681565b6000808273ffffffffffffffffffffffffffffffffffffffff163b119050919050565b6000819050919050565b61043681610423565b82525050565b6000602082019050610451600083018461042d565b92915050565b600080fd5b600073ffffffffffffffffffffffffffffffffffffffff82169050919050565b60006104878261045c565b9050919050565b6104978161047c565b81146104a257600080fd5b50565b6000813590506104b48161048e565b92915050565b600080604083850312156104d1576104d0610457565b5b60006104df858286016104a5565b92505060206104f0858286016104a5565b9150509250929050565b6000819050919050565b600061051f61051a6105158461045c565b6104fa565b61045c565b9050919050565b600061053182610504565b9050919050565b600061054382610526565b9050919050565b61055381610538565b82525050565b600060208201905061056e600083018461054a565b92915050565b600061057f8261045c565b9050919050565b61058f81610574565b82525050565b60006020820190506105aa6000830184610586565b92915050565b6105b98161047c565b82525050565b60006020820190506105d460008301846105b0565b92915050565b6105e381610423565b81146105ee57600080fd5b50565b600081519050610600816105da565b92915050565b60006020828403121561061c5761061b610457565b5b600061062a848285016105f1565b91505092915050565b600082825260208201905092915050565b7f496e697469616c697a61626c653a20636f6e747261637420697320616c72656160008201527f647920696e697469616c697a6564000000000000000000000000000000000000602082015250565b60006106a0602e83610633565b91506106ab82610644565b604082019050919050565b600060208201905081810360008301526106cf81610693565b9050919050565b6000819050919050565b600060ff82169050919050565b60006107086107036106fe846106d6565b6104fa565b6106e0565b9050919050565b610718816106ed565b82525050565b6000602082019050610733600083018461070f565b9291505056fea26469706673582212200ab974b8af44c0bf22e20fd931f80c0e4bbf1901ea63812ee5c567f8338559f564736f6c63430008120033",
  "immutableReferences": {},
  "source": "// SPDX-License-Identifier: MIT\r\npragma solidity ^0.8.2;\r\n\r\nimport \"@openzeppelin/contracts/proxy/utils/Initializable.sol\";\r\nimport \"./LoyaltyToken.sol\";\r\nimport \"./VendorContract.sol\";\r\n\r\ncontract UserContract is Initializable{\r\n    address payable public owner;\r\n    address public deployer;\r\n    \r\n    mapping(address => uint256) orderMapping;\r\n\r\n    LoyaltyToken public loyaltyToken;\r\n\r\n    function initialize(\r\n        address _ownerAddress,\r\n        address _loyaltyTokenAddress\r\n    ) external initializer {\r\n        owner = payable(_ownerAddress);\r\n        deployer = tx.origin;\r\n        loyaltyToken = LoyaltyToken(_loyaltyTokenAddress);\r\n    }\r\n\r\n    modifier onlyOwner() {\r\n        require(msg.sender == owner, \"Only the owner can perform this action\");\r\n        _;\r\n    }\r\n\r\n    function getBalance() public view returns (uint){\r\n        return loyaltyToken.balanceOf(address(this));\r\n    }\r\n\r\n}\r\n",
  "sourcePath": "D:\\Blockchain\\GRiD\\blockchain\\contracts\\UserContract.sol",
  "compiler": {
    "name": "solc",
    "version": "0.8.18+commit.87f61d96.Emscripten.clang"
  },
  "schemaVersion": "3.4.15",
  "updatedAt": "2023-08-20T07:13:06.109Z",
  "devdoc": {
    "events": {
      "Initialized(uint8)": {
        "details": "Triggered when the contract has been initialized or reinitialized."
      }
    },
    "kind": "dev",
    "methods": {},
    "version": 1
  },
  "userdoc": {
    "kind": "user",
    "methods": {},
    "version": 1
  }
}