{
  "contractName": "UserContract",
  "abi": [
    {
      "inputs": [
        {
          "internalType": "address",
          "name": "_loyaltyTokenAddress",
          "type": "address"
        }
      ],
      "stateMutability": "nonpayable",
      "type": "constructor"
    },
    {
      "inputs": [],
      "name": "burnable",
      "outputs": [
        {
          "internalType": "uint256",
          "name": "",
          "type": "uint256"
        }
      ],
      "stateMutability": "view",
      "type": "function",
      "constant": true
    },
    {
      "inputs": [],
      "name": "loyaltyToken",
      "outputs": [
        {
          "internalType": "contract LoyaltyToken",
          "name": "",
          "type": "address"
        }
      ],
      "stateMutability": "view",
      "type": "function",
      "constant": true
    },
    {
      "inputs": [],
      "name": "owner",
      "outputs": [
        {
          "internalType": "address payable",
          "name": "",
          "type": "address"
        }
      ],
      "stateMutability": "view",
      "type": "function",
      "constant": true
    },
    {
      "inputs": [
        {
          "internalType": "address",
          "name": "",
          "type": "address"
        }
      ],
      "name": "userMapping",
      "outputs": [
        {
          "internalType": "uint256",
          "name": "",
          "type": "uint256"
        }
      ],
      "stateMutability": "view",
      "type": "function",
      "constant": true
    },
    {
      "inputs": [],
      "name": "vendorContract",
      "outputs": [
        {
          "internalType": "contract VendorContract",
          "name": "",
          "type": "address"
        }
      ],
      "stateMutability": "view",
      "type": "function",
      "constant": true
    },
    {
      "inputs": [],
      "name": "getTeasuryBalance",
      "outputs": [
        {
          "internalType": "uint256",
          "name": "",
          "type": "uint256"
        }
      ],
      "stateMutability": "view",
      "type": "function",
      "constant": true
    },
    {
      "inputs": [
        {
          "internalType": "address payable",
          "name": "_vendorContractAddress",
          "type": "address"
        }
      ],
      "name": "setVendorContract",
      "outputs": [],
      "stateMutability": "nonpayable",
      "type": "function"
    },
    {
      "inputs": [
        {
          "internalType": "address payable",
          "name": "_userAddress",
          "type": "address"
        }
      ],
      "name": "addUser",
      "outputs": [],
      "stateMutability": "nonpayable",
      "type": "function"
    },
    {
      "inputs": [
        {
          "internalType": "address",
          "name": "user",
          "type": "address"
        },
        {
          "internalType": "uint256",
          "name": "amount",
          "type": "uint256"
        }
      ],
      "name": "spendTokens",
      "outputs": [],
      "stateMutability": "nonpayable",
      "type": "function"
    },
    {
      "inputs": [
        {
          "internalType": "address",
          "name": "user",
          "type": "address"
        },
        {
          "internalType": "uint256",
          "name": "amount",
          "type": "uint256"
        }
      ],
      "name": "getTokens",
      "outputs": [],
      "stateMutability": "nonpayable",
      "type": "function"
    }
  ],
  "bytecode": "0x6080604052600060015534801561001557600080fd5b50604051620010133803806200101383398181016040528101906100399190610123565b336000806101000a81548173ffffffffffffffffffffffffffffffffffffffff021916908373ffffffffffffffffffffffffffffffffffffffff16021790555080600360006101000a81548173ffffffffffffffffffffffffffffffffffffffff021916908373ffffffffffffffffffffffffffffffffffffffff16021790555050610150565b600080fd5b600073ffffffffffffffffffffffffffffffffffffffff82169050919050565b60006100f0826100c5565b9050919050565b610100816100e5565b811461010b57600080fd5b50565b60008151905061011d816100f7565b92915050565b600060208284031215610139576101386100c0565b5b60006101478482850161010e565b91505092915050565b610eb380620001606000396000f3fe608060405234801561001057600080fd5b506004361061009e5760003560e01c806364b701b31161006657806364b701b314610143578063770aa84d146101615780638da5cb5b1461017f578063a07c7ce41461019d578063ea07e68a146101bb5761009e565b80630c5db7fc146100a3578063118b9535146100bf5780632c512d6e146100ef578063421b2d8b1461010b5780635dec8ae914610127575b600080fd5b6100bd60048036038101906100b891906108e0565b6101d9565b005b6100d960048036038101906100d4919061094b565b6102ab565b6040516100e69190610991565b60405180910390f35b610109600480360381019061010491906109d8565b6102c3565b005b610125600480360381019061012091906108e0565b610403565b005b610141600480360381019061013c91906109d8565b6105a9565b005b61014b610764565b6040516101589190610991565b60405180910390f35b610169610807565b6040516101769190610a77565b60405180910390f35b61018761082d565b6040516101949190610aa1565b60405180910390f35b6101a5610851565b6040516101b29190610991565b60405180910390f35b6101c3610857565b6040516101d09190610add565b60405180910390f35b60008054906101000a900473ffffffffffffffffffffffffffffffffffffffff1673ffffffffffffffffffffffffffffffffffffffff163373ffffffffffffffffffffffffffffffffffffffff1614610267576040517f08c379a000000000000000000000000000000000000000000000000000000000815260040161025e90610b7b565b60405180910390fd5b80600460006101000a81548173ffffffffffffffffffffffffffffffffffffffff021916908373ffffffffffffffffffffffffffffffffffffffff16021790555050565b60026020528060005260406000206000915090505481565b600460009054906101000a900473ffffffffffffffffffffffffffffffffffffffff1673ffffffffffffffffffffffffffffffffffffffff163373ffffffffffffffffffffffffffffffffffffffff16148061036a575060008054906101000a900473ffffffffffffffffffffffffffffffffffffffff1673ffffffffffffffffffffffffffffffffffffffff163373ffffffffffffffffffffffffffffffffffffffff16145b6103a9576040517f08c379a00000000000000000000000000000000000000000000000000000000081526004016103a090610c0d565b60405180910390fd5b80600260008473ffffffffffffffffffffffffffffffffffffffff1673ffffffffffffffffffffffffffffffffffffffff16815260200190815260200160002060008282546103f89190610c5c565b925050819055505050565b60008054906101000a900473ffffffffffffffffffffffffffffffffffffffff1673ffffffffffffffffffffffffffffffffffffffff163373ffffffffffffffffffffffffffffffffffffffff1614610491576040517f08c379a000000000000000000000000000000000000000000000000000000000815260040161048890610b7b565b60405180910390fd5b606460015411156104bb576064600160008282546104af9190610c90565b92505081905550610561565b600360009054906101000a900473ffffffffffffffffffffffffffffffffffffffff1673ffffffffffffffffffffffffffffffffffffffff1663d0dbc8333060015460646105099190610c90565b6040518363ffffffff1660e01b8152600401610526929190610cd3565b600060405180830381600087803b15801561054057600080fd5b505af1158015610554573d6000803e3d6000fd5b5050505060006001819055505b6064600260008373ffffffffffffffffffffffffffffffffffffffff1673ffffffffffffffffffffffffffffffffffffffff1681526020019081526020016000208190555050565b818073ffffffffffffffffffffffffffffffffffffffff163373ffffffffffffffffffffffffffffffffffffffff16148061062f575060008054906101000a900473ffffffffffffffffffffffffffffffffffffffff1673ffffffffffffffffffffffffffffffffffffffff163373ffffffffffffffffffffffffffffffffffffffff16145b61066e576040517f08c379a000000000000000000000000000000000000000000000000000000000815260040161066590610d6e565b60405180910390fd5b81600260008573ffffffffffffffffffffffffffffffffffffffff1673ffffffffffffffffffffffffffffffffffffffff1681526020019081526020016000205410156106f0576040517f08c379a00000000000000000000000000000000000000000000000000000000081526004016106e790610e00565b60405180910390fd5b81600260008573ffffffffffffffffffffffffffffffffffffffff1673ffffffffffffffffffffffffffffffffffffffff168152602001908152602001600020600082825461073f9190610c90565b9250508190555081600160008282546107589190610c5c565b92505081905550505050565b6000600360009054906101000a900473ffffffffffffffffffffffffffffffffffffffff1673ffffffffffffffffffffffffffffffffffffffff166370a08231306040518263ffffffff1660e01b81526004016107c19190610e20565b602060405180830381865afa1580156107de573d6000803e3d6000fd5b505050506040513d601f19601f820116820180604052508101906108029190610e50565b905090565b600360009054906101000a900473ffffffffffffffffffffffffffffffffffffffff1681565b60008054906101000a900473ffffffffffffffffffffffffffffffffffffffff1681565b60015481565b600460009054906101000a900473ffffffffffffffffffffffffffffffffffffffff1681565b600080fd5b600073ffffffffffffffffffffffffffffffffffffffff82169050919050565b60006108ad82610882565b9050919050565b6108bd816108a2565b81146108c857600080fd5b50565b6000813590506108da816108b4565b92915050565b6000602082840312156108f6576108f561087d565b5b6000610904848285016108cb565b91505092915050565b600061091882610882565b9050919050565b6109288161090d565b811461093357600080fd5b50565b6000813590506109458161091f565b92915050565b6000602082840312156109615761096061087d565b5b600061096f84828501610936565b91505092915050565b6000819050919050565b61098b81610978565b82525050565b60006020820190506109a66000830184610982565b92915050565b6109b581610978565b81146109c057600080fd5b50565b6000813590506109d2816109ac565b92915050565b600080604083850312156109ef576109ee61087d565b5b60006109fd85828601610936565b9250506020610a0e858286016109c3565b9150509250929050565b6000819050919050565b6000610a3d610a38610a3384610882565b610a18565b610882565b9050919050565b6000610a4f82610a22565b9050919050565b6000610a6182610a44565b9050919050565b610a7181610a56565b82525050565b6000602082019050610a8c6000830184610a68565b92915050565b610a9b816108a2565b82525050565b6000602082019050610ab66000830184610a92565b92915050565b6000610ac782610a44565b9050919050565b610ad781610abc565b82525050565b6000602082019050610af26000830184610ace565b92915050565b600082825260208201905092915050565b7f4f6e6c7920746865206f776e65722063616e20706572666f726d20746869732060008201527f616374696f6e0000000000000000000000000000000000000000000000000000602082015250565b6000610b65602683610af8565b9150610b7082610b09565b604082019050919050565b60006020820190508181036000830152610b9481610b58565b9050919050565b7f4f6e6c79207468652076656e646f722063616e20706572666f726d207468697360008201527f20616374696f6e00000000000000000000000000000000000000000000000000602082015250565b6000610bf7602783610af8565b9150610c0282610b9b565b604082019050919050565b60006020820190508181036000830152610c2681610bea565b9050919050565b7f4e487b7100000000000000000000000000000000000000000000000000000000600052601160045260246000fd5b6000610c6782610978565b9150610c7283610978565b9250828201905080821115610c8a57610c89610c2d565b5b92915050565b6000610c9b82610978565b9150610ca683610978565b9250828203905081811115610cbe57610cbd610c2d565b5b92915050565b610ccd8161090d565b82525050565b6000604082019050610ce86000830185610cc4565b610cf56020830184610982565b9392505050565b7f4f6e6c7920757365722063616e20706572666f726d207468697320616374696f60008201527f6e206f6e20686973206163636f756e7400000000000000000000000000000000602082015250565b6000610d58603083610af8565b9150610d6382610cfc565b604082019050919050565b60006020820190508181036000830152610d8781610d4b565b9050919050565b7f496e73756666696369656e74204c6f79616c7479546f6b656e732062616c616e60008201527f6365000000000000000000000000000000000000000000000000000000000000602082015250565b6000610dea602283610af8565b9150610df582610d8e565b604082019050919050565b60006020820190508181036000830152610e1981610ddd565b9050919050565b6000602082019050610e356000830184610cc4565b92915050565b600081519050610e4a816109ac565b92915050565b600060208284031215610e6657610e6561087d565b5b6000610e7484828501610e3b565b9150509291505056fea264697066735822122038a619d4f87fdd4dbe3ade62b8a10e508be303dc0582d4eafa26a5fb68734fa064736f6c63430008120033",
  "immutableReferences": {},
  "source": "// SPDX-License-Identifier: MIT\r\npragma solidity ^0.8.2;\r\n\r\nimport \"./LoyaltyToken.sol\";\r\nimport \"./VendorContract.sol\";\r\n\r\ncontract UserContract {\r\n    address payable public owner;\r\n    uint256 public burnable = 0;\r\n\r\n    mapping(address => uint256) public userMapping;\r\n\r\n    LoyaltyToken public loyaltyToken;\r\n    VendorContract public vendorContract;\r\n\r\n    constructor(\r\n        address _loyaltyTokenAddress\r\n    ) {\r\n        owner = payable(msg.sender);\r\n        loyaltyToken = LoyaltyToken(_loyaltyTokenAddress);\r\n    }\r\n\r\n    modifier onlyOwner() {\r\n        require(msg.sender == owner, \"Only the owner can perform this action\");\r\n        _;\r\n    }\r\n\r\n    modifier onlyVendor() {\r\n        require(msg.sender == address(vendorContract)  || msg.sender == owner, \"Only the vendor can perform this action\");\r\n        _;\r\n    }\r\n\r\n    modifier onlyUser(address _userAddress) {\r\n        require(msg.sender == _userAddress  || msg.sender == owner, \"Only user can perform this action on his account\");\r\n        _;\r\n    }\r\n\r\n    function getTeasuryBalance() public view returns (uint){\r\n        return loyaltyToken.balanceOf(address(this));\r\n    }\r\n\r\n    function setVendorContract(address payable _vendorContractAddress) external onlyOwner {\r\n        vendorContract = VendorContract(_vendorContractAddress);\r\n    }\r\n\r\n    function addUser (\r\n        address payable _userAddress\r\n    ) public onlyOwner {\r\n        if (burnable > 100) {\r\n            burnable -= 100;\r\n        }\r\n        else{\r\n            loyaltyToken.mintForUser(address(this), 100-burnable);\r\n            burnable = 0;\r\n        }\r\n        userMapping[_userAddress] = 100;\r\n    }\r\n\r\n    function spendTokens(address user, uint256 amount) public onlyUser(user) {\r\n        require(userMapping[user] >= amount, \"Insufficient LoyaltyTokens balance\");\r\n        userMapping[user] -= amount;\r\n        burnable += amount;\r\n    }\r\n\r\n    function getTokens(address user, uint256 amount) public onlyVendor {\r\n        userMapping[user] += amount;\r\n    }\r\n}\r\n",
  "sourcePath": "D:\\Blockchain\\GRiD\\blockchain\\contracts\\UserContract.sol",
  "compiler": {
    "name": "solc",
    "version": "0.8.18+commit.87f61d96.Emscripten.clang"
  },
  "schemaVersion": "3.4.15",
  "updatedAt": "2023-08-16T09:11:18.695Z",
  "networkType": "ethereum",
  "devdoc": {
    "kind": "dev",
    "methods": {},
    "version": 1
  },
  "userdoc": {
    "kind": "user",
    "methods": {},
    "version": 1
  }
}