{
  "contractName": "UserContract",
  "abi": [
    {
      "anonymous": false,
      "inputs": [
        {
          "indexed": false,
          "internalType": "uint8",
          "name": "version",
          "type": "uint8"
        }
      ],
      "name": "Initialized",
      "type": "event"
    },
    {
      "inputs": [],
      "name": "loyaltyToken",
      "outputs": [
        {
          "internalType": "contract LoyaltyToken",
          "name": "",
          "type": "address"
        }
      ],
      "stateMutability": "view",
      "type": "function"
    },
    {
      "inputs": [],
      "name": "owner",
      "outputs": [
        {
          "internalType": "address payable",
          "name": "",
          "type": "address"
        }
      ],
      "stateMutability": "view",
      "type": "function"
    },
    {
      "inputs": [
        {
          "internalType": "address",
          "name": "_ownerAddress",
          "type": "address"
        },
        {
          "internalType": "address",
          "name": "_loyaltyTokenAddress",
          "type": "address"
        }
      ],
      "name": "initialize",
      "outputs": [],
      "stateMutability": "nonpayable",
      "type": "function"
    },
    {
      "inputs": [],
      "name": "getBalance",
      "outputs": [
        {
          "internalType": "uint256",
          "name": "",
          "type": "uint256"
        }
      ],
      "stateMutability": "view",
      "type": "function"
    },
    {
      "inputs": [
        {
          "internalType": "uint256",
          "name": "amount",
          "type": "uint256"
        }
      ],
      "name": "spendTokens",
      "outputs": [],
      "stateMutability": "nonpayable",
      "type": "function"
    }
  ],
  "bytecode": "0x608060405234801561001057600080fd5b50610af5806100206000396000f3fe608060405234801561001057600080fd5b50600436106100575760003560e01c806312065fe01461005c578063485cc9551461007a578063770aa84d146100965780638da5cb5b146100b45780638e39f515146100d2575b600080fd5b6100646100ee565b60405161007191906105cf565b60405180910390f35b610094600480360381019061008f919061064d565b610191565b005b61009e6103db565b6040516100ab91906106ec565b60405180910390f35b6100bc610401565b6040516100c99190610728565b60405180910390f35b6100ec60048036038101906100e7919061076f565b610427565b005b6000600260009054906101000a900473ffffffffffffffffffffffffffffffffffffffff1673ffffffffffffffffffffffffffffffffffffffff166370a08231306040518263ffffffff1660e01b815260040161014b91906107ab565b602060405180830381865afa158015610168573d6000803e3d6000fd5b505050506040513d601f19601f8201168201806040525081019061018c91906107db565b905090565b60008060019054906101000a900460ff161590508080156101c25750600160008054906101000a900460ff1660ff16105b806101ef57506101d130610593565b1580156101ee5750600160008054906101000a900460ff1660ff16145b5b61022e576040517f08c379a00000000000000000000000000000000000000000000000000000000081526004016102259061088b565b60405180910390fd5b60016000806101000a81548160ff021916908360ff160217905550801561026b576001600060016101000a81548160ff0219169083151502179055505b82600060026101000a81548173ffffffffffffffffffffffffffffffffffffffff021916908373ffffffffffffffffffffffffffffffffffffffff16021790555081600260006101000a81548173ffffffffffffffffffffffffffffffffffffffff021916908373ffffffffffffffffffffffffffffffffffffffff160217905550600260009054906101000a900473ffffffffffffffffffffffffffffffffffffffff1673ffffffffffffffffffffffffffffffffffffffff1663d0dbc8333060646040518363ffffffff1660e01b815260040161034b9291906108e6565b600060405180830381600087803b15801561036557600080fd5b505af1158015610379573d6000803e3d6000fd5b5050505080156103d65760008060016101000a81548160ff0219169083151502179055507f7f26b83ff96e1f2b6a682f133852f6798a09c465da95921460cefb384740249860016040516103cd9190610957565b60405180910390a15b505050565b600260009054906101000a900473ffffffffffffffffffffffffffffffffffffffff1681565b600060029054906101000a900473ffffffffffffffffffffffffffffffffffffffff1681565b600060029054906101000a900473ffffffffffffffffffffffffffffffffffffffff1673ffffffffffffffffffffffffffffffffffffffff163373ffffffffffffffffffffffffffffffffffffffff16146104b7576040517f08c379a00000000000000000000000000000000000000000000000000000000081526004016104ae906109e4565b60405180910390fd5b806104c06100ee565b1015610501576040517f08c379a00000000000000000000000000000000000000000000000000000000081526004016104f890610a76565b60405180910390fd5b600260009054906101000a900473ffffffffffffffffffffffffffffffffffffffff1673ffffffffffffffffffffffffffffffffffffffff16639dc29fac30836040518363ffffffff1660e01b815260040161055e929190610a96565b600060405180830381600087803b15801561057857600080fd5b505af115801561058c573d6000803e3d6000fd5b5050505050565b6000808273ffffffffffffffffffffffffffffffffffffffff163b119050919050565b6000819050919050565b6105c9816105b6565b82525050565b60006020820190506105e460008301846105c0565b92915050565b600080fd5b600073ffffffffffffffffffffffffffffffffffffffff82169050919050565b600061061a826105ef565b9050919050565b61062a8161060f565b811461063557600080fd5b50565b60008135905061064781610621565b92915050565b60008060408385031215610664576106636105ea565b5b600061067285828601610638565b925050602061068385828601610638565b9150509250929050565b6000819050919050565b60006106b26106ad6106a8846105ef565b61068d565b6105ef565b9050919050565b60006106c482610697565b9050919050565b60006106d6826106b9565b9050919050565b6106e6816106cb565b82525050565b600060208201905061070160008301846106dd565b92915050565b6000610712826105ef565b9050919050565b61072281610707565b82525050565b600060208201905061073d6000830184610719565b92915050565b61074c816105b6565b811461075757600080fd5b50565b60008135905061076981610743565b92915050565b600060208284031215610785576107846105ea565b5b60006107938482850161075a565b91505092915050565b6107a58161060f565b82525050565b60006020820190506107c0600083018461079c565b92915050565b6000815190506107d581610743565b92915050565b6000602082840312156107f1576107f06105ea565b5b60006107ff848285016107c6565b91505092915050565b600082825260208201905092915050565b7f496e697469616c697a61626c653a20636f6e747261637420697320616c72656160008201527f647920696e697469616c697a6564000000000000000000000000000000000000602082015250565b6000610875602e83610808565b915061088082610819565b604082019050919050565b600060208201905081810360008301526108a481610868565b9050919050565b6000819050919050565b60006108d06108cb6108c6846108ab565b61068d565b6105b6565b9050919050565b6108e0816108b5565b82525050565b60006040820190506108fb600083018561079c565b61090860208301846108d7565b9392505050565b6000819050919050565b600060ff82169050919050565b600061094161093c6109378461090f565b61068d565b610919565b9050919050565b61095181610926565b82525050565b600060208201905061096c6000830184610948565b92915050565b7f4f6e6c7920746865206f776e65722063616e20706572666f726d20746869732060008201527f616374696f6e0000000000000000000000000000000000000000000000000000602082015250565b60006109ce602683610808565b91506109d982610972565b604082019050919050565b600060208201905081810360008301526109fd816109c1565b9050919050565b7f496e73756666696369656e74204c6f79616c7479546f6b656e732062616c616e60008201527f6365000000000000000000000000000000000000000000000000000000000000602082015250565b6000610a60602283610808565b9150610a6b82610a04565b604082019050919050565b60006020820190508181036000830152610a8f81610a53565b9050919050565b6000604082019050610aab600083018561079c565b610ab860208301846105c0565b939250505056fea26469706673582212208a768653d8fb0fc4c858cb471104db8f938f5679c32247f1d340c2a3aa3225a964736f6c63430008120033",
  "immutableReferences": {},
  "source": "// SPDX-License-Identifier: MIT\r\npragma solidity ^0.8.2;\r\n\r\nimport \"@openzeppelin/contracts/proxy/utils/Initializable.sol\";\r\nimport \"./LoyaltyToken.sol\";\r\nimport \"./VendorContract.sol\";\r\n\r\ncontract UserContract is Initializable{\r\n    address payable public owner;\r\n    \r\n    mapping(address => uint256) orderMapping;\r\n\r\n    LoyaltyToken public loyaltyToken;\r\n\r\n    function initialize(\r\n        address _ownerAddress,\r\n        address _loyaltyTokenAddress\r\n    ) external initializer {\r\n        owner = payable(_ownerAddress);\r\n        loyaltyToken = LoyaltyToken(_loyaltyTokenAddress);\r\n        loyaltyToken.mintForUser(address(this), 100);\r\n    }\r\n\r\n    modifier onlyOwner() {\r\n        require(msg.sender == owner, \"Only the owner can perform this action\");\r\n        _;\r\n    }\r\n\r\n    function getBalance() public view returns (uint){\r\n        return loyaltyToken.balanceOf(address(this));\r\n    }\r\n\r\n    function spendTokens(uint256 amount) public onlyOwner {\r\n        require(getBalance() >= amount, \"Insufficient LoyaltyTokens balance\");\r\n        loyaltyToken.burn(address(this), amount);\r\n    }\r\n}\r\n",
  "sourcePath": "D:\\Blockchain\\GRiD\\blockchain\\contracts\\UserContract.sol",
  "compiler": {
    "name": "solc",
    "version": "0.8.18+commit.87f61d96.Emscripten.clang"
  },
  "schemaVersion": "3.4.15",
  "updatedAt": "2023-08-17T16:33:37.687Z",
  "devdoc": {
    "events": {
      "Initialized(uint8)": {
        "details": "Triggered when the contract has been initialized or reinitialized."
      }
    },
    "kind": "dev",
    "methods": {},
    "version": 1
  },
  "userdoc": {
    "kind": "user",
    "methods": {},
    "version": 1
  }
}