{
  "contractName": "VendorContract",
  "abi": [
    {
      "inputs": [
        {
          "internalType": "address",
          "name": "_loyaltyTokenAddress",
          "type": "address"
        }
      ],
      "stateMutability": "nonpayable",
      "type": "constructor"
    },
    {
      "inputs": [],
      "name": "loyaltyToken",
      "outputs": [
        {
          "internalType": "contract LoyaltyToken",
          "name": "",
          "type": "address"
        }
      ],
      "stateMutability": "view",
      "type": "function",
      "constant": true
    },
    {
      "inputs": [],
      "name": "owner",
      "outputs": [
        {
          "internalType": "address payable",
          "name": "",
          "type": "address"
        }
      ],
      "stateMutability": "view",
      "type": "function",
      "constant": true
    },
    {
      "inputs": [],
      "name": "userContract",
      "outputs": [
        {
          "internalType": "contract UserContract",
          "name": "",
          "type": "address"
        }
      ],
      "stateMutability": "view",
      "type": "function",
      "constant": true
    },
    {
      "inputs": [
        {
          "internalType": "address",
          "name": "",
          "type": "address"
        }
      ],
      "name": "vendorMapping",
      "outputs": [
        {
          "internalType": "enum VendorContract.Tier",
          "name": "vendorTier",
          "type": "uint8"
        },
        {
          "internalType": "uint256",
          "name": "maxPurchases",
          "type": "uint256"
        },
        {
          "internalType": "uint256",
          "name": "loyaltyTokensBalance",
          "type": "uint256"
        }
      ],
      "stateMutability": "view",
      "type": "function",
      "constant": true
    },
    {
      "inputs": [
        {
          "internalType": "address",
          "name": "_userContractAddress",
          "type": "address"
        }
      ],
      "name": "setUserContract",
      "outputs": [],
      "stateMutability": "nonpayable",
      "type": "function"
    },
    {
      "inputs": [],
      "name": "getTeasuryBalance",
      "outputs": [
        {
          "internalType": "uint256",
          "name": "",
          "type": "uint256"
        }
      ],
      "stateMutability": "view",
      "type": "function",
      "constant": true
    },
    {
      "inputs": [
        {
          "internalType": "enum VendorContract.Tier",
          "name": "_vendorTier",
          "type": "uint8"
        },
        {
          "internalType": "uint256",
          "name": "_maxPurchases",
          "type": "uint256"
        },
        {
          "internalType": "address payable",
          "name": "_vendorAddress",
          "type": "address"
        },
        {
          "internalType": "uint256",
          "name": "_balance",
          "type": "uint256"
        }
      ],
      "name": "addVendor",
      "outputs": [],
      "stateMutability": "nonpayable",
      "type": "function"
    },
    {
      "inputs": [
        {
          "internalType": "address",
          "name": "_vendorAddress",
          "type": "address"
        },
        {
          "internalType": "uint256",
          "name": "_maxPurchases",
          "type": "uint256"
        }
      ],
      "name": "setMaxPurchases",
      "outputs": [],
      "stateMutability": "nonpayable",
      "type": "function"
    },
    {
      "inputs": [
        {
          "internalType": "address",
          "name": "_vendorAddress",
          "type": "address"
        },
        {
          "internalType": "enum VendorContract.Tier",
          "name": "_vendorTier",
          "type": "uint8"
        }
      ],
      "name": "setVendorTier",
      "outputs": [],
      "stateMutability": "nonpayable",
      "type": "function"
    },
    {
      "inputs": [
        {
          "internalType": "address",
          "name": "_vendorAddress",
          "type": "address"
        },
        {
          "internalType": "address",
          "name": "_userAddress",
          "type": "address"
        },
        {
          "internalType": "uint256",
          "name": "amount",
          "type": "uint256"
        }
      ],
      "name": "issueTokens",
      "outputs": [],
      "stateMutability": "nonpayable",
      "type": "function"
    }
  ],
  "bytecode": "0x60806040523480156200001157600080fd5b506040516200140a3803806200140a833981810160405281019062000037919062000129565b336000806101000a81548173ffffffffffffffffffffffffffffffffffffffff021916908373ffffffffffffffffffffffffffffffffffffffff16021790555080600260006101000a81548173ffffffffffffffffffffffffffffffffffffffff021916908373ffffffffffffffffffffffffffffffffffffffff160217905550506200015b565b600080fd5b600073ffffffffffffffffffffffffffffffffffffffff82169050919050565b6000620000f182620000c4565b9050919050565b6200010381620000e4565b81146200010f57600080fd5b50565b6000815190506200012381620000f8565b92915050565b600060208284031215620001425762000141620000bf565b5b6000620001528482850162000112565b91505092915050565b61129f806200016b6000396000f3fe608060405234801561001057600080fd5b506004361061009e5760003560e01c80637dc87ecc116100665780637dc87ecc146101355780638da5cb5b146101515780639b9335e71461016f578063a1206d4e146101a1578063c67d5f3f146101bd5761009e565b80632459bac8146100a35780635000596b146100bf57806364b701b3146100dd578063770aa84d146100fb5780637bcac3f214610119575b600080fd5b6100bd60048036038101906100b89190610be9565b6101d9565b005b6100c76104d4565b6040516100d49190610c9b565b60405180910390f35b6100e56104fa565b6040516100f29190610cc5565b60405180910390f35b61010361059d565b6040516101109190610d01565b60405180910390f35b610133600480360381019061012e9190610d1c565b6105c3565b005b61014f600480360381019061014a9190610d81565b6106d4565b005b610159610808565b6040516101669190610de2565b60405180910390f35b61018960048036038101906101849190610dfd565b61082c565b60405161019893929190610ea1565b60405180910390f35b6101bb60048036038101906101b69190610dfd565b610863565b005b6101d760048036038101906101d29190610f04565b610935565b005b828073ffffffffffffffffffffffffffffffffffffffff163373ffffffffffffffffffffffffffffffffffffffff16148061025f575060008054906101000a900473ffffffffffffffffffffffffffffffffffffffff1673ffffffffffffffffffffffffffffffffffffffff163373ffffffffffffffffffffffffffffffffffffffff16145b61029e576040517f08c379a000000000000000000000000000000000000000000000000000000000815260040161029590610fee565b60405180910390fd5b81600160008673ffffffffffffffffffffffffffffffffffffffff1673ffffffffffffffffffffffffffffffffffffffff168152602001908152602001600020600201541015610323576040517f08c379a000000000000000000000000000000000000000000000000000000000815260040161031a9061105a565b60405180910390fd5b600260009054906101000a900473ffffffffffffffffffffffffffffffffffffffff1673ffffffffffffffffffffffffffffffffffffffff1663a9059cbb600360009054906101000a900473ffffffffffffffffffffffffffffffffffffffff16846040518363ffffffff1660e01b81526004016103a2929190611089565b6020604051808303816000875af11580156103c1573d6000803e3d6000fd5b505050506040513d601f19601f820116820180604052508101906103e591906110ea565b5081600160008673ffffffffffffffffffffffffffffffffffffffff1673ffffffffffffffffffffffffffffffffffffffff16815260200190815260200160002060020160008282546104389190611146565b92505081905550600360009054906101000a900473ffffffffffffffffffffffffffffffffffffffff1673ffffffffffffffffffffffffffffffffffffffff16632c512d6e84846040518363ffffffff1660e01b815260040161049c929190611089565b600060405180830381600087803b1580156104b657600080fd5b505af11580156104ca573d6000803e3d6000fd5b5050505050505050565b600360009054906101000a900473ffffffffffffffffffffffffffffffffffffffff1681565b6000600260009054906101000a900473ffffffffffffffffffffffffffffffffffffffff1673ffffffffffffffffffffffffffffffffffffffff166370a08231306040518263ffffffff1660e01b8152600401610557919061117a565b602060405180830381865afa158015610574573d6000803e3d6000fd5b505050506040513d601f19601f8201168201806040525081019061059891906111aa565b905090565b600260009054906101000a900473ffffffffffffffffffffffffffffffffffffffff1681565b818073ffffffffffffffffffffffffffffffffffffffff163373ffffffffffffffffffffffffffffffffffffffff161480610649575060008054906101000a900473ffffffffffffffffffffffffffffffffffffffff1673ffffffffffffffffffffffffffffffffffffffff163373ffffffffffffffffffffffffffffffffffffffff16145b610688576040517f08c379a000000000000000000000000000000000000000000000000000000000815260040161067f90610fee565b60405180910390fd5b81600160008573ffffffffffffffffffffffffffffffffffffffff1673ffffffffffffffffffffffffffffffffffffffff16815260200190815260200160002060010181905550505050565b818073ffffffffffffffffffffffffffffffffffffffff163373ffffffffffffffffffffffffffffffffffffffff16148061075a575060008054906101000a900473ffffffffffffffffffffffffffffffffffffffff1673ffffffffffffffffffffffffffffffffffffffff163373ffffffffffffffffffffffffffffffffffffffff16145b610799576040517f08c379a000000000000000000000000000000000000000000000000000000000815260040161079090610fee565b60405180910390fd5b81600160008573ffffffffffffffffffffffffffffffffffffffff1673ffffffffffffffffffffffffffffffffffffffff16815260200190815260200160002060000160006101000a81548160ff021916908360038111156107fe576107fd610e2a565b5b0217905550505050565b60008054906101000a900473ffffffffffffffffffffffffffffffffffffffff1681565b60016020528060005260406000206000915090508060000160009054906101000a900460ff16908060010154908060020154905083565b60008054906101000a900473ffffffffffffffffffffffffffffffffffffffff1673ffffffffffffffffffffffffffffffffffffffff163373ffffffffffffffffffffffffffffffffffffffff16146108f1576040517f08c379a00000000000000000000000000000000000000000000000000000000081526004016108e890611249565b60405180910390fd5b80600360006101000a81548173ffffffffffffffffffffffffffffffffffffffff021916908373ffffffffffffffffffffffffffffffffffffffff16021790555050565b60008054906101000a900473ffffffffffffffffffffffffffffffffffffffff1673ffffffffffffffffffffffffffffffffffffffff163373ffffffffffffffffffffffffffffffffffffffff16146109c3576040517f08c379a00000000000000000000000000000000000000000000000000000000081526004016109ba90611249565b60405180910390fd5b83600160008473ffffffffffffffffffffffffffffffffffffffff1673ffffffffffffffffffffffffffffffffffffffff16815260200190815260200160002060000160006101000a81548160ff02191690836003811115610a2857610a27610e2a565b5b021790555082600160008473ffffffffffffffffffffffffffffffffffffffff1673ffffffffffffffffffffffffffffffffffffffff16815260200190815260200160002060010181905550600260009054906101000a900473ffffffffffffffffffffffffffffffffffffffff1673ffffffffffffffffffffffffffffffffffffffff1663d0dbc83330836040518363ffffffff1660e01b8152600401610ad1929190611089565b600060405180830381600087803b158015610aeb57600080fd5b505af1158015610aff573d6000803e3d6000fd5b5050505080600160008473ffffffffffffffffffffffffffffffffffffffff1673ffffffffffffffffffffffffffffffffffffffff1681526020019081526020016000206002018190555050505050565b600080fd5b600073ffffffffffffffffffffffffffffffffffffffff82169050919050565b6000610b8082610b55565b9050919050565b610b9081610b75565b8114610b9b57600080fd5b50565b600081359050610bad81610b87565b92915050565b6000819050919050565b610bc681610bb3565b8114610bd157600080fd5b50565b600081359050610be381610bbd565b92915050565b600080600060608486031215610c0257610c01610b50565b5b6000610c1086828701610b9e565b9350506020610c2186828701610b9e565b9250506040610c3286828701610bd4565b9150509250925092565b6000819050919050565b6000610c61610c5c610c5784610b55565b610c3c565b610b55565b9050919050565b6000610c7382610c46565b9050919050565b6000610c8582610c68565b9050919050565b610c9581610c7a565b82525050565b6000602082019050610cb06000830184610c8c565b92915050565b610cbf81610bb3565b82525050565b6000602082019050610cda6000830184610cb6565b92915050565b6000610ceb82610c68565b9050919050565b610cfb81610ce0565b82525050565b6000602082019050610d166000830184610cf2565b92915050565b60008060408385031215610d3357610d32610b50565b5b6000610d4185828601610b9e565b9250506020610d5285828601610bd4565b9150509250929050565b60048110610d6957600080fd5b50565b600081359050610d7b81610d5c565b92915050565b60008060408385031215610d9857610d97610b50565b5b6000610da685828601610b9e565b9250506020610db785828601610d6c565b9150509250929050565b6000610dcc82610b55565b9050919050565b610ddc81610dc1565b82525050565b6000602082019050610df76000830184610dd3565b92915050565b600060208284031215610e1357610e12610b50565b5b6000610e2184828501610b9e565b91505092915050565b7f4e487b7100000000000000000000000000000000000000000000000000000000600052602160045260246000fd5b60048110610e6a57610e69610e2a565b5b50565b6000819050610e7b82610e59565b919050565b6000610e8b82610e6d565b9050919050565b610e9b81610e80565b82525050565b6000606082019050610eb66000830186610e92565b610ec36020830185610cb6565b610ed06040830184610cb6565b949350505050565b610ee181610dc1565b8114610eec57600080fd5b50565b600081359050610efe81610ed8565b92915050565b60008060008060808587031215610f1e57610f1d610b50565b5b6000610f2c87828801610d6c565b9450506020610f3d87828801610bd4565b9350506040610f4e87828801610eef565b9250506060610f5f87828801610bd4565b91505092959194509250565b600082825260208201905092915050565b7f4f6e6c79207468652076656e646f722063616e20706572666f726d207468697360008201527f20616374696f6e00000000000000000000000000000000000000000000000000602082015250565b6000610fd8602783610f6b565b9150610fe382610f7c565b604082019050919050565b6000602082019050818103600083015261100781610fcb565b9050919050565b7f4e6f7420656e6f75676874206c6f79616c747920746f6b656e73000000000000600082015250565b6000611044601a83610f6b565b915061104f8261100e565b602082019050919050565b6000602082019050818103600083015261107381611037565b9050919050565b61108381610b75565b82525050565b600060408201905061109e600083018561107a565b6110ab6020830184610cb6565b9392505050565b60008115159050919050565b6110c7816110b2565b81146110d257600080fd5b50565b6000815190506110e4816110be565b92915050565b600060208284031215611100576110ff610b50565b5b600061110e848285016110d5565b91505092915050565b7f4e487b7100000000000000000000000000000000000000000000000000000000600052601160045260246000fd5b600061115182610bb3565b915061115c83610bb3565b925082820390508181111561117457611173611117565b5b92915050565b600060208201905061118f600083018461107a565b92915050565b6000815190506111a481610bbd565b92915050565b6000602082840312156111c0576111bf610b50565b5b60006111ce84828501611195565b91505092915050565b7f4f6e6c7920746865206f776e65722063616e20706572666f726d20746869732060008201527f616374696f6e0000000000000000000000000000000000000000000000000000602082015250565b6000611233602683610f6b565b915061123e826111d7565b604082019050919050565b6000602082019050818103600083015261126281611226565b905091905056fea2646970667358221220dfd7cc8f06802b69a8972f068fdbe33acc34157573ea5f442e81406986a1ac5464736f6c63430008120033",
  "immutableReferences": {},
  "source": "// SPDX-License-Identifier: MIT\r\npragma solidity ^0.8.2;\r\n\r\nimport \"./LoyaltyToken.sol\";\r\nimport \"./UserContract.sol\";\r\n\r\ncontract VendorContract {\r\n\r\n    address payable public owner;\r\n\r\n    enum Tier { Tier1, Tier2, Tier3, Tier4 }\r\n\r\n    struct Vendor {\r\n        Tier vendorTier;\r\n        uint256 maxPurchases;\r\n        uint256 loyaltyTokensBalance;\r\n    }\r\n\r\n    mapping(address => Vendor) public vendorMapping;\r\n\r\n    LoyaltyToken public loyaltyToken;\r\n    UserContract public userContract;\r\n\r\n    constructor(\r\n        address _loyaltyTokenAddress\r\n    ) {\r\n        owner = payable(msg.sender);\r\n        loyaltyToken = LoyaltyToken(_loyaltyTokenAddress);\r\n    }\r\n\r\n    modifier onlyOwner() {\r\n        require(msg.sender == owner, \"Only the owner can perform this action\");\r\n        _;\r\n    }\r\n\r\n    modifier onlyVendor(address _vendorAddress) {\r\n        require(msg.sender == _vendorAddress || msg.sender == owner, \"Only the vendor can perform this action\");\r\n        _;\r\n    }\r\n\r\n    function setUserContract(address _userContractAddress) external onlyOwner {\r\n        userContract = UserContract(_userContractAddress);\r\n    }\r\n\r\n    function getTeasuryBalance() public view returns (uint){\r\n        return loyaltyToken.balanceOf(address(this));\r\n    }\r\n\r\n    function addVendor (\r\n        Tier _vendorTier,\r\n        uint256 _maxPurchases,\r\n        address payable _vendorAddress,\r\n        uint256 _balance\r\n    ) public onlyOwner {\r\n        vendorMapping[_vendorAddress].vendorTier = _vendorTier;\r\n        vendorMapping[_vendorAddress].maxPurchases = _maxPurchases;\r\n        loyaltyToken.mintForUser(address(this), _balance);\r\n        vendorMapping[_vendorAddress].loyaltyTokensBalance = _balance;\r\n    }\r\n\r\n    function setMaxPurchases(address _vendorAddress, uint256 _maxPurchases) public onlyVendor(_vendorAddress){\r\n        vendorMapping[_vendorAddress].maxPurchases = _maxPurchases;\r\n    }\r\n\r\n    function setVendorTier(address _vendorAddress, Tier _vendorTier) public onlyVendor(_vendorAddress){\r\n        vendorMapping[_vendorAddress].vendorTier = _vendorTier;\r\n    }\r\n\r\n    function issueTokens(address _vendorAddress, address _userAddress, uint256 amount) public onlyVendor(_vendorAddress){\r\n        require(vendorMapping[_vendorAddress].loyaltyTokensBalance >= amount, \"Not enought loyalty tokens\");\r\n        loyaltyToken.transfer(address(userContract), amount);\r\n        vendorMapping[_vendorAddress].loyaltyTokensBalance -= amount;\r\n        userContract.getTokens(_userAddress, amount);\r\n    }\r\n}\r\n",
  "sourcePath": "D:\\Blockchain\\GRiD\\blockchain\\contracts\\VendorContract.sol",
  "compiler": {
    "name": "solc",
    "version": "0.8.18+commit.87f61d96.Emscripten.clang"
  },
  "schemaVersion": "3.4.15",
  "updatedAt": "2023-08-16T09:11:18.688Z",
  "networkType": "ethereum",
  "devdoc": {
    "kind": "dev",
    "methods": {},
    "version": 1
  },
  "userdoc": {
    "kind": "user",
    "methods": {},
    "version": 1
  }
}