{
  "contractName": "VendorContract",
  "abi": [
    {
      "anonymous": false,
      "inputs": [
        {
          "indexed": false,
          "internalType": "uint8",
          "name": "version",
          "type": "uint8"
        }
      ],
      "name": "Initialized",
      "type": "event"
    },
    {
      "inputs": [],
      "name": "deployer",
      "outputs": [
        {
          "internalType": "address",
          "name": "",
          "type": "address"
        }
      ],
      "stateMutability": "view",
      "type": "function"
    },
    {
      "inputs": [],
      "name": "loyaltyToken",
      "outputs": [
        {
          "internalType": "contract LoyaltyToken",
          "name": "",
          "type": "address"
        }
      ],
      "stateMutability": "view",
      "type": "function"
    },
    {
      "inputs": [],
      "name": "owner",
      "outputs": [
        {
          "internalType": "address payable",
          "name": "",
          "type": "address"
        }
      ],
      "stateMutability": "view",
      "type": "function"
    },
    {
      "inputs": [
        {
          "internalType": "address",
          "name": "_ownerAddress",
          "type": "address"
        },
        {
          "internalType": "address",
          "name": "_loyaltyTokenAddress",
          "type": "address"
        },
        {
          "internalType": "uint256",
          "name": "_maxPurchases",
          "type": "uint256"
        }
      ],
      "name": "initialize",
      "outputs": [],
      "stateMutability": "nonpayable",
      "type": "function"
    },
    {
      "inputs": [],
      "name": "getBalance",
      "outputs": [
        {
          "internalType": "uint256",
          "name": "",
          "type": "uint256"
        }
      ],
      "stateMutability": "view",
      "type": "function"
    },
    {
      "inputs": [
        {
          "internalType": "uint256",
          "name": "_maxPurchases",
          "type": "uint256"
        }
      ],
      "name": "setMaxPurchases",
      "outputs": [],
      "stateMutability": "nonpayable",
      "type": "function"
    },
    {
      "inputs": [
        {
          "internalType": "enum VendorContract.Tier",
          "name": "_vendorTier",
          "type": "uint8"
        }
      ],
      "name": "setVendorTier",
      "outputs": [],
      "stateMutability": "nonpayable",
      "type": "function"
    }
  ],
  "bytecode": "0x608060405234801561001057600080fd5b50610a94806100206000396000f3fe608060405234801561001057600080fd5b506004361061007d5760003560e01c80636c270a301161005b5780636c270a30146100d8578063770aa84d146100f45780638da5cb5b14610112578063d5f39488146101305761007d565b806312065fe0146100825780631794bb3c146100a05780633612a509146100bc575b600080fd5b61008a61014e565b60405161009791906105f9565b60405180910390f35b6100ba60048036038101906100b591906106a3565b6101f1565b005b6100d660048036038101906100d191906106f6565b6103f4565b005b6100f260048036038101906100ed9190610748565b61048e565b005b6100fc61054b565b60405161010991906107d4565b60405180910390f35b61011a610571565b6040516101279190610810565b60405180910390f35b610138610597565b604051610145919061083a565b60405180910390f35b6000600360009054906101000a900473ffffffffffffffffffffffffffffffffffffffff1673ffffffffffffffffffffffffffffffffffffffff166370a08231306040518263ffffffff1660e01b81526004016101ab919061083a565b602060405180830381865afa1580156101c8573d6000803e3d6000fd5b505050506040513d601f19601f820116820180604052508101906101ec919061086a565b905090565b60008060019054906101000a900460ff161590508080156102225750600160008054906101000a900460ff1660ff16105b8061024f5750610231306105bd565b15801561024e5750600160008054906101000a900460ff1660ff16145b5b61028e576040517f08c379a00000000000000000000000000000000000000000000000000000000081526004016102859061091a565b60405180910390fd5b60016000806101000a81548160ff021916908360ff16021790555080156102cb576001600060016101000a81548160ff0219169083151502179055505b83600060026101000a81548173ffffffffffffffffffffffffffffffffffffffff021916908373ffffffffffffffffffffffffffffffffffffffff16021790555082600360006101000a81548173ffffffffffffffffffffffffffffffffffffffff021916908373ffffffffffffffffffffffffffffffffffffffff1602179055508160028190555032600160006101000a81548173ffffffffffffffffffffffffffffffffffffffff021916908373ffffffffffffffffffffffffffffffffffffffff16021790555080156103ee5760008060016101000a81548160ff0219169083151502179055507f7f26b83ff96e1f2b6a682f133852f6798a09c465da95921460cefb384740249860016040516103e59190610982565b60405180910390a15b50505050565b600060029054906101000a900473ffffffffffffffffffffffffffffffffffffffff1673ffffffffffffffffffffffffffffffffffffffff163373ffffffffffffffffffffffffffffffffffffffff1614610484576040517f08c379a000000000000000000000000000000000000000000000000000000000815260040161047b90610a0f565b60405180910390fd5b8060028190555050565b600060029054906101000a900473ffffffffffffffffffffffffffffffffffffffff1673ffffffffffffffffffffffffffffffffffffffff163373ffffffffffffffffffffffffffffffffffffffff161461051e576040517f08c379a000000000000000000000000000000000000000000000000000000000815260040161051590610a0f565b60405180910390fd5b80600160146101000a81548160ff0219169083600381111561054357610542610a2f565b5b021790555050565b600360009054906101000a900473ffffffffffffffffffffffffffffffffffffffff1681565b600060029054906101000a900473ffffffffffffffffffffffffffffffffffffffff1681565b600160009054906101000a900473ffffffffffffffffffffffffffffffffffffffff1681565b6000808273ffffffffffffffffffffffffffffffffffffffff163b119050919050565b6000819050919050565b6105f3816105e0565b82525050565b600060208201905061060e60008301846105ea565b92915050565b600080fd5b600073ffffffffffffffffffffffffffffffffffffffff82169050919050565b600061064482610619565b9050919050565b61065481610639565b811461065f57600080fd5b50565b6000813590506106718161064b565b92915050565b610680816105e0565b811461068b57600080fd5b50565b60008135905061069d81610677565b92915050565b6000806000606084860312156106bc576106bb610614565b5b60006106ca86828701610662565b93505060206106db86828701610662565b92505060406106ec8682870161068e565b9150509250925092565b60006020828403121561070c5761070b610614565b5b600061071a8482850161068e565b91505092915050565b6004811061073057600080fd5b50565b60008135905061074281610723565b92915050565b60006020828403121561075e5761075d610614565b5b600061076c84828501610733565b91505092915050565b6000819050919050565b600061079a61079561079084610619565b610775565b610619565b9050919050565b60006107ac8261077f565b9050919050565b60006107be826107a1565b9050919050565b6107ce816107b3565b82525050565b60006020820190506107e960008301846107c5565b92915050565b60006107fa82610619565b9050919050565b61080a816107ef565b82525050565b60006020820190506108256000830184610801565b92915050565b61083481610639565b82525050565b600060208201905061084f600083018461082b565b92915050565b60008151905061086481610677565b92915050565b6000602082840312156108805761087f610614565b5b600061088e84828501610855565b91505092915050565b600082825260208201905092915050565b7f496e697469616c697a61626c653a20636f6e747261637420697320616c72656160008201527f647920696e697469616c697a6564000000000000000000000000000000000000602082015250565b6000610904602e83610897565b915061090f826108a8565b604082019050919050565b60006020820190508181036000830152610933816108f7565b9050919050565b6000819050919050565b600060ff82169050919050565b600061096c6109676109628461093a565b610775565b610944565b9050919050565b61097c81610951565b82525050565b60006020820190506109976000830184610973565b92915050565b7f4f6e6c7920746865206f776e65722063616e20706572666f726d20746869732060008201527f616374696f6e0000000000000000000000000000000000000000000000000000602082015250565b60006109f9602683610897565b9150610a048261099d565b604082019050919050565b60006020820190508181036000830152610a28816109ec565b9050919050565b7f4e487b7100000000000000000000000000000000000000000000000000000000600052602160045260246000fdfea2646970667358221220f871fbf42b09b81b527d529b892ab1f3ccc6e0bf9f942e79e9dfa6ca5e850c6564736f6c63430008120033",
  "immutableReferences": {},
  "source": "// SPDX-License-Identifier: MIT\r\npragma solidity ^0.8.2;\r\n\r\nimport \"@openzeppelin/contracts/proxy/utils/Initializable.sol\";\r\nimport \"./LoyaltyToken.sol\";\r\nimport \"./UserContract.sol\";\r\n\r\ncontract VendorContract is Initializable {\r\n\r\n    address payable public owner;\r\n    address public deployer;\r\n\r\n    enum Tier { Tier1, Tier2, Tier3, Tier4 }\r\n\r\n    Tier vendorTier;\r\n    uint256 maxPurchases;\r\n    \r\n    LoyaltyToken public loyaltyToken;\r\n    UserContract private userContract;\r\n    \r\n    function initialize(\r\n        address _ownerAddress,\r\n        address _loyaltyTokenAddress,\r\n        uint256 _maxPurchases\r\n    ) external initializer {\r\n        owner = payable(_ownerAddress);\r\n        loyaltyToken = LoyaltyToken(_loyaltyTokenAddress);\r\n        maxPurchases = _maxPurchases;\r\n        deployer = tx.origin;\r\n    }\r\n\r\n    modifier onlyOwner() {\r\n        require(msg.sender == owner, \"Only the owner can perform this action\");\r\n        _;\r\n    }\r\n\r\n    function getBalance() public view returns (uint){\r\n        return loyaltyToken.balanceOf(address(this));\r\n    }\r\n\r\n    function setMaxPurchases(uint256 _maxPurchases) public onlyOwner {\r\n        maxPurchases = _maxPurchases;\r\n    }\r\n\r\n    function setVendorTier(Tier _vendorTier) public onlyOwner {\r\n        vendorTier = _vendorTier;\r\n    }\r\n}\r\n",
  "sourcePath": "D:\\Blockchain\\GRiD\\blockchain\\contracts\\VendorContract.sol",
  "compiler": {
    "name": "solc",
    "version": "0.8.18+commit.87f61d96.Emscripten.clang"
  },
  "schemaVersion": "3.4.15",
  "updatedAt": "2023-08-20T13:39:26.106Z",
  "devdoc": {
    "events": {
      "Initialized(uint8)": {
        "details": "Triggered when the contract has been initialized or reinitialized."
      }
    },
    "kind": "dev",
    "methods": {},
    "version": 1
  },
  "userdoc": {
    "kind": "user",
    "methods": {},
    "version": 1
  }
}