{
  "contractName": "VendorContract",
  "abi": [
    {
      "anonymous": false,
      "inputs": [
        {
          "indexed": false,
          "internalType": "uint8",
          "name": "version",
          "type": "uint8"
        }
      ],
      "name": "Initialized",
      "type": "event"
    },
    {
      "inputs": [],
      "name": "loyaltyToken",
      "outputs": [
        {
          "internalType": "contract LoyaltyToken",
          "name": "",
          "type": "address"
        }
      ],
      "stateMutability": "view",
      "type": "function"
    },
    {
      "inputs": [],
      "name": "owner",
      "outputs": [
        {
          "internalType": "address payable",
          "name": "",
          "type": "address"
        }
      ],
      "stateMutability": "view",
      "type": "function"
    },
    {
      "inputs": [
        {
          "internalType": "address",
          "name": "_ownerAddress",
          "type": "address"
        },
        {
          "internalType": "address",
          "name": "_loyaltyTokenAddress",
          "type": "address"
        },
        {
          "internalType": "uint256",
          "name": "_maxPurchases",
          "type": "uint256"
        },
        {
          "internalType": "uint256",
          "name": "_balance",
          "type": "uint256"
        }
      ],
      "name": "initialize",
      "outputs": [],
      "stateMutability": "nonpayable",
      "type": "function"
    },
    {
      "inputs": [],
      "name": "getBalance",
      "outputs": [
        {
          "internalType": "uint256",
          "name": "",
          "type": "uint256"
        }
      ],
      "stateMutability": "view",
      "type": "function"
    },
    {
      "inputs": [
        {
          "internalType": "uint256",
          "name": "_maxPurchases",
          "type": "uint256"
        }
      ],
      "name": "setMaxPurchases",
      "outputs": [],
      "stateMutability": "nonpayable",
      "type": "function"
    },
    {
      "inputs": [
        {
          "internalType": "enum VendorContract.Tier",
          "name": "_vendorTier",
          "type": "uint8"
        }
      ],
      "name": "setVendorTier",
      "outputs": [],
      "stateMutability": "nonpayable",
      "type": "function"
    },
    {
      "inputs": [
        {
          "internalType": "address",
          "name": "_userContractAddress",
          "type": "address"
        },
        {
          "internalType": "uint256",
          "name": "amount",
          "type": "uint256"
        }
      ],
      "name": "issueTokens",
      "outputs": [],
      "stateMutability": "nonpayable",
      "type": "function"
    }
  ],
  "bytecode": "0x608060405234801561001057600080fd5b50610deb806100206000396000f3fe608060405234801561001057600080fd5b506004361061007d5760003560e01c80636c270a301161005b5780636c270a30146100d8578063770aa84d146100f45780638da5cb5b14610112578063eb990c59146101305761007d565b806312065fe0146100825780633612a509146100a0578063475a9fa9146100bc575b600080fd5b61008a61014c565b6040516100979190610802565b60405180910390f35b6100ba60048036038101906100b5919061084e565b6101ef565b005b6100d660048036038101906100d191906108d9565b610289565b005b6100f260048036038101906100ed919061093e565b61046b565b005b6100fc610528565b60405161010991906109ca565b60405180910390f35b61011a61054e565b6040516101279190610a06565b60405180910390f35b61014a60048036038101906101459190610a21565b610574565b005b6000600260009054906101000a900473ffffffffffffffffffffffffffffffffffffffff1673ffffffffffffffffffffffffffffffffffffffff166370a08231306040518263ffffffff1660e01b81526004016101a99190610a97565b602060405180830381865afa1580156101c6573d6000803e3d6000fd5b505050506040513d601f19601f820116820180604052508101906101ea9190610ac7565b905090565b600060029054906101000a900473ffffffffffffffffffffffffffffffffffffffff1673ffffffffffffffffffffffffffffffffffffffff163373ffffffffffffffffffffffffffffffffffffffff161461027f576040517f08c379a000000000000000000000000000000000000000000000000000000000815260040161027690610b77565b60405180910390fd5b8060018190555050565b600060029054906101000a900473ffffffffffffffffffffffffffffffffffffffff1673ffffffffffffffffffffffffffffffffffffffff163373ffffffffffffffffffffffffffffffffffffffff1614610319576040517f08c379a000000000000000000000000000000000000000000000000000000000815260040161031090610b77565b60405180910390fd5b8061032261014c565b1015610363576040517f08c379a000000000000000000000000000000000000000000000000000000000815260040161035a90610be3565b60405180910390fd5b81600360006101000a81548173ffffffffffffffffffffffffffffffffffffffff021916908373ffffffffffffffffffffffffffffffffffffffff160217905550600260009054906101000a900473ffffffffffffffffffffffffffffffffffffffff1673ffffffffffffffffffffffffffffffffffffffff1663a9059cbb600360009054906101000a900473ffffffffffffffffffffffffffffffffffffffff16836040518363ffffffff1660e01b8152600401610423929190610c03565b6020604051808303816000875af1158015610442573d6000803e3d6000fd5b505050506040513d601f19601f820116820180604052508101906104669190610c64565b505050565b600060029054906101000a900473ffffffffffffffffffffffffffffffffffffffff1673ffffffffffffffffffffffffffffffffffffffff163373ffffffffffffffffffffffffffffffffffffffff16146104fb576040517f08c379a00000000000000000000000000000000000000000000000000000000081526004016104f290610b77565b60405180910390fd5b80600060166101000a81548160ff021916908360038111156105205761051f610c91565b5b021790555050565b600260009054906101000a900473ffffffffffffffffffffffffffffffffffffffff1681565b600060029054906101000a900473ffffffffffffffffffffffffffffffffffffffff1681565b60008060019054906101000a900460ff161590508080156105a55750600160008054906101000a900460ff1660ff16105b806105d257506105b4306107c6565b1580156105d15750600160008054906101000a900460ff1660ff16145b5b610611576040517f08c379a000000000000000000000000000000000000000000000000000000000815260040161060890610d32565b60405180910390fd5b60016000806101000a81548160ff021916908360ff160217905550801561064e576001600060016101000a81548160ff0219169083151502179055505b84600060026101000a81548173ffffffffffffffffffffffffffffffffffffffff021916908373ffffffffffffffffffffffffffffffffffffffff16021790555083600260006101000a81548173ffffffffffffffffffffffffffffffffffffffff021916908373ffffffffffffffffffffffffffffffffffffffff16021790555082600181905550600260009054906101000a900473ffffffffffffffffffffffffffffffffffffffff1673ffffffffffffffffffffffffffffffffffffffff1663d0dbc83330846040518363ffffffff1660e01b8152600401610734929190610c03565b600060405180830381600087803b15801561074e57600080fd5b505af1158015610762573d6000803e3d6000fd5b5050505080156107bf5760008060016101000a81548160ff0219169083151502179055507f7f26b83ff96e1f2b6a682f133852f6798a09c465da95921460cefb384740249860016040516107b69190610d9a565b60405180910390a15b5050505050565b6000808273ffffffffffffffffffffffffffffffffffffffff163b119050919050565b6000819050919050565b6107fc816107e9565b82525050565b600060208201905061081760008301846107f3565b92915050565b600080fd5b61082b816107e9565b811461083657600080fd5b50565b60008135905061084881610822565b92915050565b6000602082840312156108645761086361081d565b5b600061087284828501610839565b91505092915050565b600073ffffffffffffffffffffffffffffffffffffffff82169050919050565b60006108a68261087b565b9050919050565b6108b68161089b565b81146108c157600080fd5b50565b6000813590506108d3816108ad565b92915050565b600080604083850312156108f0576108ef61081d565b5b60006108fe858286016108c4565b925050602061090f85828601610839565b9150509250929050565b6004811061092657600080fd5b50565b60008135905061093881610919565b92915050565b6000602082840312156109545761095361081d565b5b600061096284828501610929565b91505092915050565b6000819050919050565b600061099061098b6109868461087b565b61096b565b61087b565b9050919050565b60006109a282610975565b9050919050565b60006109b482610997565b9050919050565b6109c4816109a9565b82525050565b60006020820190506109df60008301846109bb565b92915050565b60006109f08261087b565b9050919050565b610a00816109e5565b82525050565b6000602082019050610a1b60008301846109f7565b92915050565b60008060008060808587031215610a3b57610a3a61081d565b5b6000610a49878288016108c4565b9450506020610a5a878288016108c4565b9350506040610a6b87828801610839565b9250506060610a7c87828801610839565b91505092959194509250565b610a918161089b565b82525050565b6000602082019050610aac6000830184610a88565b92915050565b600081519050610ac181610822565b92915050565b600060208284031215610add57610adc61081d565b5b6000610aeb84828501610ab2565b91505092915050565b600082825260208201905092915050565b7f4f6e6c7920746865206f776e65722063616e20706572666f726d20746869732060008201527f616374696f6e0000000000000000000000000000000000000000000000000000602082015250565b6000610b61602683610af4565b9150610b6c82610b05565b604082019050919050565b60006020820190508181036000830152610b9081610b54565b9050919050565b7f4e6f7420656e6f75676874206c6f79616c747920746f6b656e73000000000000600082015250565b6000610bcd601a83610af4565b9150610bd882610b97565b602082019050919050565b60006020820190508181036000830152610bfc81610bc0565b9050919050565b6000604082019050610c186000830185610a88565b610c2560208301846107f3565b9392505050565b60008115159050919050565b610c4181610c2c565b8114610c4c57600080fd5b50565b600081519050610c5e81610c38565b92915050565b600060208284031215610c7a57610c7961081d565b5b6000610c8884828501610c4f565b91505092915050565b7f4e487b7100000000000000000000000000000000000000000000000000000000600052602160045260246000fd5b7f496e697469616c697a61626c653a20636f6e747261637420697320616c72656160008201527f647920696e697469616c697a6564000000000000000000000000000000000000602082015250565b6000610d1c602e83610af4565b9150610d2782610cc0565b604082019050919050565b60006020820190508181036000830152610d4b81610d0f565b9050919050565b6000819050919050565b600060ff82169050919050565b6000610d84610d7f610d7a84610d52565b61096b565b610d5c565b9050919050565b610d9481610d69565b82525050565b6000602082019050610daf6000830184610d8b565b9291505056fea264697066735822122022acdb380318dfda1ece6c0de6659326040f41569faf7583930dffa42716cf4864736f6c63430008120033",
  "immutableReferences": {},
  "source": "// SPDX-License-Identifier: MIT\r\npragma solidity ^0.8.2;\r\n\r\nimport \"@openzeppelin/contracts/proxy/utils/Initializable.sol\";\r\nimport \"./LoyaltyToken.sol\";\r\nimport \"./UserContract.sol\";\r\n\r\ncontract VendorContract is Initializable {\r\n\r\n    address payable public owner;\r\n\r\n    enum Tier { Tier1, Tier2, Tier3, Tier4 }\r\n\r\n    Tier vendorTier;\r\n    uint256 maxPurchases;\r\n    \r\n    LoyaltyToken public loyaltyToken;\r\n    UserContract private userContract;\r\n    \r\n    function initialize(\r\n        address _ownerAddress,\r\n        address _loyaltyTokenAddress,\r\n        uint256 _maxPurchases,\r\n        uint256 _balance\r\n    ) external initializer {\r\n        owner = payable(_ownerAddress);\r\n        loyaltyToken = LoyaltyToken(_loyaltyTokenAddress);\r\n        maxPurchases = _maxPurchases;\r\n        loyaltyToken.mintForUser(address(this), _balance);\r\n    }\r\n\r\n    modifier onlyOwner() {\r\n        require(msg.sender == owner, \"Only the owner can perform this action\");\r\n        _;\r\n    }\r\n\r\n    function getBalance() public view returns (uint){\r\n        return loyaltyToken.balanceOf(address(this));\r\n    }\r\n\r\n    function setMaxPurchases(uint256 _maxPurchases) public onlyOwner {\r\n        maxPurchases = _maxPurchases;\r\n    }\r\n\r\n    function setVendorTier(Tier _vendorTier) public onlyOwner {\r\n        vendorTier = _vendorTier;\r\n    }\r\n\r\n    function issueTokens(address _userContractAddress, uint256 amount) public onlyOwner {\r\n        require(getBalance() >= amount, \"Not enought loyalty tokens\");\r\n        userContract = UserContract(_userContractAddress);\r\n        loyaltyToken.transfer(address(userContract), amount);\r\n    }\r\n}\r\n",
  "sourcePath": "D:\\Blockchain\\GRiD\\blockchain\\contracts\\VendorContract.sol",
  "compiler": {
    "name": "solc",
    "version": "0.8.18+commit.87f61d96.Emscripten.clang"
  },
  "schemaVersion": "3.4.15",
  "updatedAt": "2023-08-17T16:33:37.693Z",
  "devdoc": {
    "events": {
      "Initialized(uint8)": {
        "details": "Triggered when the contract has been initialized or reinitialized."
      }
    },
    "kind": "dev",
    "methods": {},
    "version": 1
  },
  "userdoc": {
    "kind": "user",
    "methods": {},
    "version": 1
  }
}